{
  "_format": "hh-sol-artifact-1",
  "contractName": "Uruk",
  "sourceName": "contracts/Uruk.sol",
  "abi": [
    {
      "inputs": [
        {
          "internalType": "string",
          "name": "_nickname",
          "type": "string"
        }
      ],
      "name": "becomeMember",
      "outputs": [],
      "stateMutability": "nonpayable",
      "type": "function"
    },
    {
      "inputs": [
        {
          "internalType": "address",
          "name": "_memberAddress",
          "type": "address"
        }
      ],
      "name": "connect",
      "outputs": [],
      "stateMutability": "nonpayable",
      "type": "function"
    },
    {
      "inputs": [
        {
          "internalType": "address",
          "name": "",
          "type": "address"
        },
        {
          "internalType": "uint256",
          "name": "",
          "type": "uint256"
        }
      ],
      "name": "connections",
      "outputs": [
        {
          "internalType": "address",
          "name": "",
          "type": "address"
        }
      ],
      "stateMutability": "view",
      "type": "function"
    },
    {
      "inputs": [
        {
          "internalType": "address",
          "name": "_memberAddress",
          "type": "address"
        }
      ],
      "name": "getMember",
      "outputs": [
        {
          "components": [
            {
              "internalType": "string",
              "name": "nickname",
              "type": "string"
            },
            {
              "internalType": "uint256",
              "name": "memberIndex",
              "type": "uint256"
            },
            {
              "internalType": "address",
              "name": "memberAddress",
              "type": "address"
            },
            {
              "internalType": "uint256",
              "name": "memberSince",
              "type": "uint256"
            }
          ],
          "internalType": "struct Uruk.Member",
          "name": "",
          "type": "tuple"
        }
      ],
      "stateMutability": "view",
      "type": "function"
    },
    {
      "inputs": [
        {
          "internalType": "address",
          "name": "_memberAddress",
          "type": "address"
        }
      ],
      "name": "getMemberConnections",
      "outputs": [
        {
          "internalType": "address[]",
          "name": "",
          "type": "address[]"
        }
      ],
      "stateMutability": "view",
      "type": "function"
    },
    {
      "inputs": [
        {
          "internalType": "address",
          "name": "_memberAddress",
          "type": "address"
        }
      ],
      "name": "getMemberPosts",
      "outputs": [
        {
          "components": [
            {
              "internalType": "address",
              "name": "owner",
              "type": "address"
            },
            {
              "internalType": "string",
              "name": "content",
              "type": "string"
            },
            {
              "internalType": "uint256",
              "name": "timestamp",
              "type": "uint256"
            }
          ],
          "internalType": "struct Uruk.Post[]",
          "name": "",
          "type": "tuple[]"
        }
      ],
      "stateMutability": "view",
      "type": "function"
    },
    {
      "inputs": [],
      "name": "getMembers",
      "outputs": [
        {
          "internalType": "address[]",
          "name": "",
          "type": "address[]"
        }
      ],
      "stateMutability": "view",
      "type": "function"
    },
    {
      "inputs": [
        {
          "internalType": "uint256",
          "name": "",
          "type": "uint256"
        }
      ],
      "name": "memberAddresses",
      "outputs": [
        {
          "internalType": "address",
          "name": "",
          "type": "address"
        }
      ],
      "stateMutability": "view",
      "type": "function"
    },
    {
      "inputs": [
        {
          "internalType": "address",
          "name": "",
          "type": "address"
        }
      ],
      "name": "members",
      "outputs": [
        {
          "internalType": "string",
          "name": "nickname",
          "type": "string"
        },
        {
          "internalType": "uint256",
          "name": "memberIndex",
          "type": "uint256"
        },
        {
          "internalType": "address",
          "name": "memberAddress",
          "type": "address"
        },
        {
          "internalType": "uint256",
          "name": "memberSince",
          "type": "uint256"
        }
      ],
      "stateMutability": "view",
      "type": "function"
    },
    {
      "inputs": [
        {
          "internalType": "string",
          "name": "_post",
          "type": "string"
        }
      ],
      "name": "post",
      "outputs": [],
      "stateMutability": "nonpayable",
      "type": "function"
    },
    {
      "inputs": [
        {
          "internalType": "address",
          "name": "",
          "type": "address"
        },
        {
          "internalType": "uint256",
          "name": "",
          "type": "uint256"
        }
      ],
      "name": "posts",
      "outputs": [
        {
          "internalType": "address",
          "name": "owner",
          "type": "address"
        },
        {
          "internalType": "string",
          "name": "content",
          "type": "string"
        },
        {
          "internalType": "uint256",
          "name": "timestamp",
          "type": "uint256"
        }
      ],
      "stateMutability": "view",
      "type": "function"
    }
  ],
  "bytecode": "0x608060405234801561001057600080fd5b50611e84806100206000396000f3fe608060405234801561001057600080fd5b50600436106100a95760003560e01c80637a65b551116100715780637a65b551146101a35780638ee93cf3146101d35780639eab5253146101ef578063cc4e62991461020d578063df3061051461023d578063ee8f931b14610259576100a9565b806308ae4b0c146100ae5780632ada2596146100e15780635c538df314610111578063699daefb1461014357806377b2dc5514610173575b600080fd5b6100c860048036038101906100c391906111d2565b610275565b6040516100d894939291906112b7565b60405180910390f35b6100fb60048036038101906100f691906111d2565b61034d565b60405161010891906113ce565b60405180910390f35b61012b6004803603810190610126919061141c565b6104a1565b60405161013a9392919061145c565b60405180910390f35b61015d600480360381019061015891906111d2565b610590565b60405161016a91906115ac565b60405180910390f35b61018d600480360381019061018891906111d2565b610720565b60405161019a919061167d565b60405180910390f35b6101bd60048036038101906101b8919061141c565b6107ed565b6040516101ca919061169f565b60405180910390f35b6101ed60048036038101906101e891906117ef565b61083b565b005b6101f7610a15565b604051610204919061167d565b60405180910390f35b61022760048036038101906102229190611838565b610aa3565b604051610234919061169f565b60405180910390f35b610257600480360381019061025291906117ef565b610ae2565b005b610273600480360381019061026e91906111d2565b610e41565b005b600060205280600052604060002060009150905080600001805461029890611894565b80601f01602080910402602001604051908101604052809291908181526020018280546102c490611894565b80156103115780601f106102e657610100808354040283529160200191610311565b820191906000526020600020905b8154815290600101906020018083116102f457829003601f168201915b5050505050908060010154908060020160009054906101000a900473ffffffffffffffffffffffffffffffffffffffff16908060030154905084565b610355611122565b6000808373ffffffffffffffffffffffffffffffffffffffff1673ffffffffffffffffffffffffffffffffffffffff1681526020019081526020016000206040518060800160405290816000820180546103ae90611894565b80601f01602080910402602001604051908101604052809291908181526020018280546103da90611894565b80156104275780601f106103fc57610100808354040283529160200191610427565b820191906000526020600020905b81548152906001019060200180831161040a57829003601f168201915b50505050508152602001600182015481526020016002820160009054906101000a900473ffffffffffffffffffffffffffffffffffffffff1673ffffffffffffffffffffffffffffffffffffffff1673ffffffffffffffffffffffffffffffffffffffff1681526020016003820154815250509050919050565b600160205281600052604060002081815481106104bd57600080fd5b9060005260206000209060030201600091509150508060000160009054906101000a900473ffffffffffffffffffffffffffffffffffffffff169080600101805461050790611894565b80601f016020809104026020016040519081016040528092919081815260200182805461053390611894565b80156105805780601f1061055557610100808354040283529160200191610580565b820191906000526020600020905b81548152906001019060200180831161056357829003601f168201915b5050505050908060020154905083565b6060600160008373ffffffffffffffffffffffffffffffffffffffff1673ffffffffffffffffffffffffffffffffffffffff168152602001908152602001600020805480602002602001604051908101604052809291908181526020016000905b8282101561071557838290600052602060002090600302016040518060600160405290816000820160009054906101000a900473ffffffffffffffffffffffffffffffffffffffff1673ffffffffffffffffffffffffffffffffffffffff1673ffffffffffffffffffffffffffffffffffffffff16815260200160018201805461067a90611894565b80601f01602080910402602001604051908101604052809291908181526020018280546106a690611894565b80156106f35780601f106106c8576101008083540402835291602001916106f3565b820191906000526020600020905b8154815290600101906020018083116106d657829003601f168201915b50505050508152602001600282015481525050815260200190600101906105f1565b505050509050919050565b6060600260008373ffffffffffffffffffffffffffffffffffffffff1673ffffffffffffffffffffffffffffffffffffffff1681526020019081526020016000208054806020026020016040519081016040528092919081815260200182805480156107e157602002820191906000526020600020905b8160009054906101000a900473ffffffffffffffffffffffffffffffffffffffff1673ffffffffffffffffffffffffffffffffffffffff1681526020019060010190808311610797575b50505050509050919050565b6002602052816000526040600020818154811061080957600080fd5b906000526020600020016000915091509054906101000a900473ffffffffffffffffffffffffffffffffffffffff1681565b3373ffffffffffffffffffffffffffffffffffffffff166000803373ffffffffffffffffffffffffffffffffffffffff1673ffffffffffffffffffffffffffffffffffffffff16815260200190815260200160002060020160009054906101000a900473ffffffffffffffffffffffffffffffffffffffff1673ffffffffffffffffffffffffffffffffffffffff161461090a576040517f08c379a000000000000000000000000000000000000000000000000000000000815260040161090190611911565b60405180910390fd5b600060405180606001604052803373ffffffffffffffffffffffffffffffffffffffff168152602001838152602001428152509050600160003373ffffffffffffffffffffffffffffffffffffffff1673ffffffffffffffffffffffffffffffffffffffff16815260200190815260200160002081908060018154018082558091505060019003906000526020600020906003020160009091909190915060008201518160000160006101000a81548173ffffffffffffffffffffffffffffffffffffffff021916908373ffffffffffffffffffffffffffffffffffffffff1602179055506020820151816001019081610a049190611add565b506040820151816002015550505050565b60606003805480602002602001604051908101604052809291908181526020018280548015610a9957602002820191906000526020600020905b8160009054906101000a900473ffffffffffffffffffffffffffffffffffffffff1673ffffffffffffffffffffffffffffffffffffffff1681526020019060010190808311610a4f575b5050505050905090565b60038181548110610ab357600080fd5b906000526020600020016000915054906101000a900473ffffffffffffffffffffffffffffffffffffffff1681565b3373ffffffffffffffffffffffffffffffffffffffff166000803373ffffffffffffffffffffffffffffffffffffffff1673ffffffffffffffffffffffffffffffffffffffff16815260200190815260200160002060020160009054906101000a900473ffffffffffffffffffffffffffffffffffffffff1673ffffffffffffffffffffffffffffffffffffffff1603610bb1576040517f08c379a0000000000000000000000000000000000000000000000000000000008152600401610ba890611bfb565b60405180910390fd5b60005b600380549050811015610ce05781604051602001610bd29190611c57565b6040516020818303038152906040528051906020012060008060038481548110610bff57610bfe611c6e565b5b9060005260206000200160009054906101000a900473ffffffffffffffffffffffffffffffffffffffff1673ffffffffffffffffffffffffffffffffffffffff1673ffffffffffffffffffffffffffffffffffffffff168152602001908152602001600020600001604051602001610c779190611d20565b6040516020818303038152906040528051906020012003610ccd576040517f08c379a0000000000000000000000000000000000000000000000000000000008152600401610cc490611d83565b60405180910390fd5b8080610cd890611dd2565b915050610bb4565b5060405180608001604052808281526020016001600380549050610d049190611e1a565b81526020013373ffffffffffffffffffffffffffffffffffffffff168152602001428152506000803373ffffffffffffffffffffffffffffffffffffffff1673ffffffffffffffffffffffffffffffffffffffff1681526020019081526020016000206000820151816000019081610d7c9190611add565b506020820151816001015560408201518160020160006101000a81548173ffffffffffffffffffffffffffffffffffffffff021916908373ffffffffffffffffffffffffffffffffffffffff160217905550606082015181600301559050506003339080600181540180825580915050600190039060005260206000200160009091909190916101000a81548173ffffffffffffffffffffffffffffffffffffffff021916908373ffffffffffffffffffffffffffffffffffffffff16021790555050565b3373ffffffffffffffffffffffffffffffffffffffff166000803373ffffffffffffffffffffffffffffffffffffffff1673ffffffffffffffffffffffffffffffffffffffff16815260200190815260200160002060020160009054906101000a900473ffffffffffffffffffffffffffffffffffffffff1673ffffffffffffffffffffffffffffffffffffffff1614610f10576040517f08c379a0000000000000000000000000000000000000000000000000000000008152600401610f0790611911565b60405180910390fd5b8073ffffffffffffffffffffffffffffffffffffffff166000808373ffffffffffffffffffffffffffffffffffffffff1673ffffffffffffffffffffffffffffffffffffffff16815260200190815260200160002060020160009054906101000a900473ffffffffffffffffffffffffffffffffffffffff1673ffffffffffffffffffffffffffffffffffffffff1614610fdf576040517f08c379a0000000000000000000000000000000000000000000000000000000008152600401610fd690611911565b60405180910390fd5b600260003373ffffffffffffffffffffffffffffffffffffffff1673ffffffffffffffffffffffffffffffffffffffff168152602001908152602001600020819080600181540180825580915050600190039060005260206000200160009091909190916101000a81548173ffffffffffffffffffffffffffffffffffffffff021916908373ffffffffffffffffffffffffffffffffffffffff160217905550600260008273ffffffffffffffffffffffffffffffffffffffff1673ffffffffffffffffffffffffffffffffffffffff168152602001908152602001600020339080600181540180825580915050600190039060005260206000200160009091909190916101000a81548173ffffffffffffffffffffffffffffffffffffffff021916908373ffffffffffffffffffffffffffffffffffffffff16021790555050565b60405180608001604052806060815260200160008152602001600073ffffffffffffffffffffffffffffffffffffffff168152602001600081525090565b6000604051905090565b600080fd5b600080fd5b600073ffffffffffffffffffffffffffffffffffffffff82169050919050565b600061119f82611174565b9050919050565b6111af81611194565b81146111ba57600080fd5b50565b6000813590506111cc816111a6565b92915050565b6000602082840312156111e8576111e761116a565b5b60006111f6848285016111bd565b91505092915050565b600081519050919050565b600082825260208201905092915050565b60005b8381101561123957808201518184015260208101905061121e565b60008484015250505050565b6000601f19601f8301169050919050565b6000611261826111ff565b61126b818561120a565b935061127b81856020860161121b565b61128481611245565b840191505092915050565b6000819050919050565b6112a28161128f565b82525050565b6112b181611194565b82525050565b600060808201905081810360008301526112d18187611256565b90506112e06020830186611299565b6112ed60408301856112a8565b6112fa6060830184611299565b95945050505050565b600082825260208201905092915050565b600061131f826111ff565b6113298185611303565b935061133981856020860161121b565b61134281611245565b840191505092915050565b6113568161128f565b82525050565b61136581611194565b82525050565b600060808301600083015184820360008601526113888282611314565b915050602083015161139d602086018261134d565b5060408301516113b0604086018261135c565b5060608301516113c3606086018261134d565b508091505092915050565b600060208201905081810360008301526113e8818461136b565b905092915050565b6113f98161128f565b811461140457600080fd5b50565b600081359050611416816113f0565b92915050565b600080604083850312156114335761143261116a565b5b6000611441858286016111bd565b925050602061145285828601611407565b9150509250929050565b600060608201905061147160008301866112a8565b81810360208301526114838185611256565b90506114926040830184611299565b949350505050565b600081519050919050565b600082825260208201905092915050565b6000819050602082019050919050565b60006060830160008301516114de600086018261135c565b50602083015184820360208601526114f68282611314565b915050604083015161150b604086018261134d565b508091505092915050565b600061152283836114c6565b905092915050565b6000602082019050919050565b60006115428261149a565b61154c81856114a5565b93508360208202850161155e856114b6565b8060005b8581101561159a578484038952815161157b8582611516565b94506115868361152a565b925060208a01995050600181019050611562565b50829750879550505050505092915050565b600060208201905081810360008301526115c68184611537565b905092915050565b600081519050919050565b600082825260208201905092915050565b6000819050602082019050919050565b6000611606838361135c565b60208301905092915050565b6000602082019050919050565b600061162a826115ce565b61163481856115d9565b935061163f836115ea565b8060005b8381101561167057815161165788826115fa565b975061166283611612565b925050600181019050611643565b5085935050505092915050565b60006020820190508181036000830152611697818461161f565b905092915050565b60006020820190506116b460008301846112a8565b92915050565b600080fd5b600080fd5b7f4e487b7100000000000000000000000000000000000000000000000000000000600052604160045260246000fd5b6116fc82611245565b810181811067ffffffffffffffff8211171561171b5761171a6116c4565b5b80604052505050565b600061172e611160565b905061173a82826116f3565b919050565b600067ffffffffffffffff82111561175a576117596116c4565b5b61176382611245565b9050602081019050919050565b82818337600083830152505050565b600061179261178d8461173f565b611724565b9050828152602081018484840111156117ae576117ad6116bf565b5b6117b9848285611770565b509392505050565b600082601f8301126117d6576117d56116ba565b5b81356117e684826020860161177f565b91505092915050565b6000602082840312156118055761180461116a565b5b600082013567ffffffffffffffff8111156118235761182261116f565b5b61182f848285016117c1565b91505092915050565b60006020828403121561184e5761184d61116a565b5b600061185c84828501611407565b91505092915050565b7f4e487b7100000000000000000000000000000000000000000000000000000000600052602260045260246000fd5b600060028204905060018216806118ac57607f821691505b6020821081036118bf576118be611865565b5b50919050565b7f4e6f742061206d656d6265720000000000000000000000000000000000000000600082015250565b60006118fb600c8361120a565b9150611906826118c5565b602082019050919050565b6000602082019050818103600083015261192a816118ee565b9050919050565b60008190508160005260206000209050919050565b60006020601f8301049050919050565b600082821b905092915050565b6000600883026119937fffffffffffffffffffffffffffffffffffffffffffffffffffffffffffffffff82611956565b61199d8683611956565b95508019841693508086168417925050509392505050565b6000819050919050565b60006119da6119d56119d08461128f565b6119b5565b61128f565b9050919050565b6000819050919050565b6119f4836119bf565b611a08611a00826119e1565b848454611963565b825550505050565b600090565b611a1d611a10565b611a288184846119eb565b505050565b5b81811015611a4c57611a41600082611a15565b600181019050611a2e565b5050565b601f821115611a9157611a6281611931565b611a6b84611946565b81016020851015611a7a578190505b611a8e611a8685611946565b830182611a2d565b50505b505050565b600082821c905092915050565b6000611ab460001984600802611a96565b1980831691505092915050565b6000611acd8383611aa3565b9150826002028217905092915050565b611ae6826111ff565b67ffffffffffffffff811115611aff57611afe6116c4565b5b611b098254611894565b611b14828285611a50565b600060209050601f831160018114611b475760008415611b35578287015190505b611b3f8582611ac1565b865550611ba7565b601f198416611b5586611931565b60005b82811015611b7d57848901518255600182019150602085019450602081019050611b58565b86831015611b9a5784890151611b96601f891682611aa3565b8355505b6001600288020188555050505b505050505050565b7f416c72656164792061206d656d62657200000000000000000000000000000000600082015250565b6000611be560108361120a565b9150611bf082611baf565b602082019050919050565b60006020820190508181036000830152611c1481611bd8565b9050919050565b600081905092915050565b6000611c31826111ff565b611c3b8185611c1b565b9350611c4b81856020860161121b565b80840191505092915050565b6000611c638284611c26565b915081905092915050565b7f4e487b7100000000000000000000000000000000000000000000000000000000600052603260045260246000fd5b60008154611caa81611894565b611cb48186611c1b565b94506001821660008114611ccf5760018114611ce457611d17565b60ff1983168652811515820286019350611d17565b611ced85611931565b60005b83811015611d0f57815481890152600182019150602081019050611cf0565b838801955050505b50505092915050565b6000611d2c8284611c9d565b915081905092915050565b7f4e69636b6e616d6520616c72656164792074616b656e00000000000000000000600082015250565b6000611d6d60168361120a565b9150611d7882611d37565b602082019050919050565b60006020820190508181036000830152611d9c81611d60565b9050919050565b7f4e487b7100000000000000000000000000000000000000000000000000000000600052601160045260246000fd5b6000611ddd8261128f565b91507fffffffffffffffffffffffffffffffffffffffffffffffffffffffffffffffff8203611e0f57611e0e611da3565b5b600182019050919050565b6000611e258261128f565b9150611e308361128f565b9250828201905080821115611e4857611e47611da3565b5b9291505056fea26469706673582212204f99b09b3f0e367cfc52ed19c46f38f6fa1a51e6f23259fb532037d2f416ae9864736f6c63430008140033",
  "linkReferences": {},
  "deployedLinkReferences": {}
}