{
  "_format": "hh-sol-artifact-1",
  "contractName": "Uruk",
  "sourceName": "contracts/Uruk.sol",
  "abi": [
    {
      "inputs": [
        {
          "internalType": "string",
          "name": "_nickname",
          "type": "string"
        }
      ],
      "name": "becomeMember",
      "outputs": [],
      "stateMutability": "nonpayable",
      "type": "function"
    },
    {
      "inputs": [
        {
          "internalType": "address",
          "name": "_memberAddress",
          "type": "address"
        }
      ],
      "name": "connect",
      "outputs": [],
      "stateMutability": "nonpayable",
      "type": "function"
    },
    {
      "inputs": [
        {
          "internalType": "address",
          "name": "",
          "type": "address"
        },
        {
          "internalType": "uint256",
          "name": "",
          "type": "uint256"
        }
      ],
      "name": "connections",
      "outputs": [
        {
          "internalType": "address",
          "name": "",
          "type": "address"
        }
      ],
      "stateMutability": "view",
      "type": "function"
    },
    {
      "inputs": [
        {
          "internalType": "address",
          "name": "_memberAddress",
          "type": "address"
        }
      ],
      "name": "getMember",
      "outputs": [
        {
          "components": [
            {
              "internalType": "string",
              "name": "nickname",
              "type": "string"
            },
            {
              "internalType": "uint256",
              "name": "memberIndex",
              "type": "uint256"
            },
            {
              "internalType": "address",
              "name": "memberAddress",
              "type": "address"
            },
            {
              "internalType": "uint256",
              "name": "memberSince",
              "type": "uint256"
            }
          ],
          "internalType": "struct Uruk.Member",
          "name": "",
          "type": "tuple"
        }
      ],
      "stateMutability": "view",
      "type": "function"
    },
    {
      "inputs": [
        {
          "internalType": "address",
          "name": "_memberAddress",
          "type": "address"
        }
      ],
      "name": "getMemberConnections",
      "outputs": [
        {
          "internalType": "address[]",
          "name": "",
          "type": "address[]"
        }
      ],
      "stateMutability": "view",
      "type": "function"
    },
    {
      "inputs": [
        {
          "internalType": "address",
          "name": "_memberAddress",
          "type": "address"
        }
      ],
      "name": "getMemberPosts",
      "outputs": [
        {
          "components": [
            {
              "internalType": "address",
              "name": "owner",
              "type": "address"
            },
            {
              "internalType": "string",
              "name": "content",
              "type": "string"
            },
            {
              "internalType": "uint256",
              "name": "timestamp",
              "type": "uint256"
            }
          ],
          "internalType": "struct Uruk.Post[]",
          "name": "",
          "type": "tuple[]"
        }
      ],
      "stateMutability": "view",
      "type": "function"
    },
    {
      "inputs": [],
      "name": "getMembers",
      "outputs": [
        {
          "internalType": "address[]",
          "name": "",
          "type": "address[]"
        }
      ],
      "stateMutability": "view",
      "type": "function"
    },
    {
      "inputs": [
        {
          "internalType": "uint256",
          "name": "",
          "type": "uint256"
        }
      ],
      "name": "memberAddresses",
      "outputs": [
        {
          "internalType": "address",
          "name": "",
          "type": "address"
        }
      ],
      "stateMutability": "view",
      "type": "function"
    },
    {
      "inputs": [
        {
          "internalType": "address",
          "name": "",
          "type": "address"
        }
      ],
      "name": "members",
      "outputs": [
        {
          "internalType": "string",
          "name": "nickname",
          "type": "string"
        },
        {
          "internalType": "uint256",
          "name": "memberIndex",
          "type": "uint256"
        },
        {
          "internalType": "address",
          "name": "memberAddress",
          "type": "address"
        },
        {
          "internalType": "uint256",
          "name": "memberSince",
          "type": "uint256"
        }
      ],
      "stateMutability": "view",
      "type": "function"
    },
    {
      "inputs": [
        {
          "internalType": "string",
          "name": "_post",
          "type": "string"
        }
      ],
      "name": "post",
      "outputs": [],
      "stateMutability": "nonpayable",
      "type": "function"
    },
    {
      "inputs": [
        {
          "internalType": "address",
          "name": "",
          "type": "address"
        },
        {
          "internalType": "uint256",
          "name": "",
          "type": "uint256"
        }
      ],
      "name": "posts",
      "outputs": [
        {
          "internalType": "address",
          "name": "owner",
          "type": "address"
        },
        {
          "internalType": "string",
          "name": "content",
          "type": "string"
        },
        {
          "internalType": "uint256",
          "name": "timestamp",
          "type": "uint256"
        }
      ],
      "stateMutability": "view",
      "type": "function"
    }
  ],
  "bytecode": "0x608060405234801561001057600080fd5b50611b84806100206000396000f3fe608060405234801561001057600080fd5b50600436106100a95760003560e01c80637a65b551116100715780637a65b551146101a35780638ee93cf3146101d35780639eab5253146101ef578063cc4e62991461020d578063df3061051461023d578063ee8f931b14610259576100a9565b806308ae4b0c146100ae5780632ada2596146100e15780635c538df314610111578063699daefb1461014357806377b2dc5514610173575b600080fd5b6100c860048036038101906100c391906110a2565b610275565b6040516100d89493929190611187565b60405180910390f35b6100fb60048036038101906100f691906110a2565b61034d565b604051610108919061129e565b60405180910390f35b61012b600480360381019061012691906112ec565b6104a1565b60405161013a9392919061132c565b60405180910390f35b61015d600480360381019061015891906110a2565b610590565b60405161016a919061147c565b60405180910390f35b61018d600480360381019061018891906110a2565b610720565b60405161019a919061154d565b60405180910390f35b6101bd60048036038101906101b891906112ec565b6107ed565b6040516101ca919061156f565b60405180910390f35b6101ed60048036038101906101e891906116bf565b61083b565b005b6101f7610a15565b604051610204919061154d565b60405180910390f35b61022760048036038101906102229190611708565b610aa3565b604051610234919061156f565b60405180910390f35b610257600480360381019061025291906116bf565b610ae2565b005b610273600480360381019061026e91906110a2565b610d11565b005b600060205280600052604060002060009150905080600001805461029890611764565b80601f01602080910402602001604051908101604052809291908181526020018280546102c490611764565b80156103115780601f106102e657610100808354040283529160200191610311565b820191906000526020600020905b8154815290600101906020018083116102f457829003601f168201915b5050505050908060010154908060020160009054906101000a900473ffffffffffffffffffffffffffffffffffffffff16908060030154905084565b610355610ff2565b6000808373ffffffffffffffffffffffffffffffffffffffff1673ffffffffffffffffffffffffffffffffffffffff1681526020019081526020016000206040518060800160405290816000820180546103ae90611764565b80601f01602080910402602001604051908101604052809291908181526020018280546103da90611764565b80156104275780601f106103fc57610100808354040283529160200191610427565b820191906000526020600020905b81548152906001019060200180831161040a57829003601f168201915b50505050508152602001600182015481526020016002820160009054906101000a900473ffffffffffffffffffffffffffffffffffffffff1673ffffffffffffffffffffffffffffffffffffffff1673ffffffffffffffffffffffffffffffffffffffff1681526020016003820154815250509050919050565b600160205281600052604060002081815481106104bd57600080fd5b9060005260206000209060030201600091509150508060000160009054906101000a900473ffffffffffffffffffffffffffffffffffffffff169080600101805461050790611764565b80601f016020809104026020016040519081016040528092919081815260200182805461053390611764565b80156105805780601f1061055557610100808354040283529160200191610580565b820191906000526020600020905b81548152906001019060200180831161056357829003601f168201915b5050505050908060020154905083565b6060600160008373ffffffffffffffffffffffffffffffffffffffff1673ffffffffffffffffffffffffffffffffffffffff168152602001908152602001600020805480602002602001604051908101604052809291908181526020016000905b8282101561071557838290600052602060002090600302016040518060600160405290816000820160009054906101000a900473ffffffffffffffffffffffffffffffffffffffff1673ffffffffffffffffffffffffffffffffffffffff1673ffffffffffffffffffffffffffffffffffffffff16815260200160018201805461067a90611764565b80601f01602080910402602001604051908101604052809291908181526020018280546106a690611764565b80156106f35780601f106106c8576101008083540402835291602001916106f3565b820191906000526020600020905b8154815290600101906020018083116106d657829003601f168201915b50505050508152602001600282015481525050815260200190600101906105f1565b505050509050919050565b6060600260008373ffffffffffffffffffffffffffffffffffffffff1673ffffffffffffffffffffffffffffffffffffffff1681526020019081526020016000208054806020026020016040519081016040528092919081815260200182805480156107e157602002820191906000526020600020905b8160009054906101000a900473ffffffffffffffffffffffffffffffffffffffff1673ffffffffffffffffffffffffffffffffffffffff1681526020019060010190808311610797575b50505050509050919050565b6002602052816000526040600020818154811061080957600080fd5b906000526020600020016000915091509054906101000a900473ffffffffffffffffffffffffffffffffffffffff1681565b3373ffffffffffffffffffffffffffffffffffffffff166000803373ffffffffffffffffffffffffffffffffffffffff1673ffffffffffffffffffffffffffffffffffffffff16815260200190815260200160002060020160009054906101000a900473ffffffffffffffffffffffffffffffffffffffff1673ffffffffffffffffffffffffffffffffffffffff161461090a576040517f08c379a0000000000000000000000000000000000000000000000000000000008152600401610901906117e1565b60405180910390fd5b600060405180606001604052803373ffffffffffffffffffffffffffffffffffffffff168152602001838152602001428152509050600160003373ffffffffffffffffffffffffffffffffffffffff1673ffffffffffffffffffffffffffffffffffffffff16815260200190815260200160002081908060018154018082558091505060019003906000526020600020906003020160009091909190915060008201518160000160006101000a81548173ffffffffffffffffffffffffffffffffffffffff021916908373ffffffffffffffffffffffffffffffffffffffff1602179055506020820151816001019081610a0491906119ad565b506040820151816002015550505050565b60606003805480602002602001604051908101604052809291908181526020018280548015610a9957602002820191906000526020600020905b8160009054906101000a900473ffffffffffffffffffffffffffffffffffffffff1673ffffffffffffffffffffffffffffffffffffffff1681526020019060010190808311610a4f575b5050505050905090565b60038181548110610ab357600080fd5b906000526020600020016000915054906101000a900473ffffffffffffffffffffffffffffffffffffffff1681565b3373ffffffffffffffffffffffffffffffffffffffff166000803373ffffffffffffffffffffffffffffffffffffffff1673ffffffffffffffffffffffffffffffffffffffff16815260200190815260200160002060020160009054906101000a900473ffffffffffffffffffffffffffffffffffffffff1673ffffffffffffffffffffffffffffffffffffffff1603610bb1576040517f08c379a0000000000000000000000000000000000000000000000000000000008152600401610ba890611acb565b60405180910390fd5b60405180608001604052808281526020016001600380549050610bd49190611b1a565b81526020013373ffffffffffffffffffffffffffffffffffffffff168152602001428152506000803373ffffffffffffffffffffffffffffffffffffffff1673ffffffffffffffffffffffffffffffffffffffff1681526020019081526020016000206000820151816000019081610c4c91906119ad565b506020820151816001015560408201518160020160006101000a81548173ffffffffffffffffffffffffffffffffffffffff021916908373ffffffffffffffffffffffffffffffffffffffff160217905550606082015181600301559050506003339080600181540180825580915050600190039060005260206000200160009091909190916101000a81548173ffffffffffffffffffffffffffffffffffffffff021916908373ffffffffffffffffffffffffffffffffffffffff16021790555050565b3373ffffffffffffffffffffffffffffffffffffffff166000803373ffffffffffffffffffffffffffffffffffffffff1673ffffffffffffffffffffffffffffffffffffffff16815260200190815260200160002060020160009054906101000a900473ffffffffffffffffffffffffffffffffffffffff1673ffffffffffffffffffffffffffffffffffffffff1614610de0576040517f08c379a0000000000000000000000000000000000000000000000000000000008152600401610dd7906117e1565b60405180910390fd5b8073ffffffffffffffffffffffffffffffffffffffff166000808373ffffffffffffffffffffffffffffffffffffffff1673ffffffffffffffffffffffffffffffffffffffff16815260200190815260200160002060020160009054906101000a900473ffffffffffffffffffffffffffffffffffffffff1673ffffffffffffffffffffffffffffffffffffffff1614610eaf576040517f08c379a0000000000000000000000000000000000000000000000000000000008152600401610ea6906117e1565b60405180910390fd5b600260003373ffffffffffffffffffffffffffffffffffffffff1673ffffffffffffffffffffffffffffffffffffffff168152602001908152602001600020819080600181540180825580915050600190039060005260206000200160009091909190916101000a81548173ffffffffffffffffffffffffffffffffffffffff021916908373ffffffffffffffffffffffffffffffffffffffff160217905550600260008273ffffffffffffffffffffffffffffffffffffffff1673ffffffffffffffffffffffffffffffffffffffff168152602001908152602001600020339080600181540180825580915050600190039060005260206000200160009091909190916101000a81548173ffffffffffffffffffffffffffffffffffffffff021916908373ffffffffffffffffffffffffffffffffffffffff16021790555050565b60405180608001604052806060815260200160008152602001600073ffffffffffffffffffffffffffffffffffffffff168152602001600081525090565b6000604051905090565b600080fd5b600080fd5b600073ffffffffffffffffffffffffffffffffffffffff82169050919050565b600061106f82611044565b9050919050565b61107f81611064565b811461108a57600080fd5b50565b60008135905061109c81611076565b92915050565b6000602082840312156110b8576110b761103a565b5b60006110c68482850161108d565b91505092915050565b600081519050919050565b600082825260208201905092915050565b60005b838110156111095780820151818401526020810190506110ee565b60008484015250505050565b6000601f19601f8301169050919050565b6000611131826110cf565b61113b81856110da565b935061114b8185602086016110eb565b61115481611115565b840191505092915050565b6000819050919050565b6111728161115f565b82525050565b61118181611064565b82525050565b600060808201905081810360008301526111a18187611126565b90506111b06020830186611169565b6111bd6040830185611178565b6111ca6060830184611169565b95945050505050565b600082825260208201905092915050565b60006111ef826110cf565b6111f981856111d3565b93506112098185602086016110eb565b61121281611115565b840191505092915050565b6112268161115f565b82525050565b61123581611064565b82525050565b6000608083016000830151848203600086015261125882826111e4565b915050602083015161126d602086018261121d565b506040830151611280604086018261122c565b506060830151611293606086018261121d565b508091505092915050565b600060208201905081810360008301526112b8818461123b565b905092915050565b6112c98161115f565b81146112d457600080fd5b50565b6000813590506112e6816112c0565b92915050565b600080604083850312156113035761130261103a565b5b60006113118582860161108d565b9250506020611322858286016112d7565b9150509250929050565b60006060820190506113416000830186611178565b81810360208301526113538185611126565b90506113626040830184611169565b949350505050565b600081519050919050565b600082825260208201905092915050565b6000819050602082019050919050565b60006060830160008301516113ae600086018261122c565b50602083015184820360208601526113c682826111e4565b91505060408301516113db604086018261121d565b508091505092915050565b60006113f28383611396565b905092915050565b6000602082019050919050565b60006114128261136a565b61141c8185611375565b93508360208202850161142e85611386565b8060005b8581101561146a578484038952815161144b85826113e6565b9450611456836113fa565b925060208a01995050600181019050611432565b50829750879550505050505092915050565b600060208201905081810360008301526114968184611407565b905092915050565b600081519050919050565b600082825260208201905092915050565b6000819050602082019050919050565b60006114d6838361122c565b60208301905092915050565b6000602082019050919050565b60006114fa8261149e565b61150481856114a9565b935061150f836114ba565b8060005b8381101561154057815161152788826114ca565b9750611532836114e2565b925050600181019050611513565b5085935050505092915050565b6000602082019050818103600083015261156781846114ef565b905092915050565b60006020820190506115846000830184611178565b92915050565b600080fd5b600080fd5b7f4e487b7100000000000000000000000000000000000000000000000000000000600052604160045260246000fd5b6115cc82611115565b810181811067ffffffffffffffff821117156115eb576115ea611594565b5b80604052505050565b60006115fe611030565b905061160a82826115c3565b919050565b600067ffffffffffffffff82111561162a57611629611594565b5b61163382611115565b9050602081019050919050565b82818337600083830152505050565b600061166261165d8461160f565b6115f4565b90508281526020810184848401111561167e5761167d61158f565b5b611689848285611640565b509392505050565b600082601f8301126116a6576116a561158a565b5b81356116b684826020860161164f565b91505092915050565b6000602082840312156116d5576116d461103a565b5b600082013567ffffffffffffffff8111156116f3576116f261103f565b5b6116ff84828501611691565b91505092915050565b60006020828403121561171e5761171d61103a565b5b600061172c848285016112d7565b91505092915050565b7f4e487b7100000000000000000000000000000000000000000000000000000000600052602260045260246000fd5b6000600282049050600182168061177c57607f821691505b60208210810361178f5761178e611735565b5b50919050565b7f4e6f742061206d656d6265720000000000000000000000000000000000000000600082015250565b60006117cb600c836110da565b91506117d682611795565b602082019050919050565b600060208201905081810360008301526117fa816117be565b9050919050565b60008190508160005260206000209050919050565b60006020601f8301049050919050565b600082821b905092915050565b6000600883026118637fffffffffffffffffffffffffffffffffffffffffffffffffffffffffffffffff82611826565b61186d8683611826565b95508019841693508086168417925050509392505050565b6000819050919050565b60006118aa6118a56118a08461115f565b611885565b61115f565b9050919050565b6000819050919050565b6118c48361188f565b6118d86118d0826118b1565b848454611833565b825550505050565b600090565b6118ed6118e0565b6118f88184846118bb565b505050565b5b8181101561191c576119116000826118e5565b6001810190506118fe565b5050565b601f8211156119615761193281611801565b61193b84611816565b8101602085101561194a578190505b61195e61195685611816565b8301826118fd565b50505b505050565b600082821c905092915050565b600061198460001984600802611966565b1980831691505092915050565b600061199d8383611973565b9150826002028217905092915050565b6119b6826110cf565b67ffffffffffffffff8111156119cf576119ce611594565b5b6119d98254611764565b6119e4828285611920565b600060209050601f831160018114611a175760008415611a05578287015190505b611a0f8582611991565b865550611a77565b601f198416611a2586611801565b60005b82811015611a4d57848901518255600182019150602085019450602081019050611a28565b86831015611a6a5784890151611a66601f891682611973565b8355505b6001600288020188555050505b505050505050565b7f416c72656164792061206d656d62657200000000000000000000000000000000600082015250565b6000611ab56010836110da565b9150611ac082611a7f565b602082019050919050565b60006020820190508181036000830152611ae481611aa8565b9050919050565b7f4e487b7100000000000000000000000000000000000000000000000000000000600052601160045260246000fd5b6000611b258261115f565b9150611b308361115f565b9250828201905080821115611b4857611b47611aeb565b5b9291505056fea26469706673582212200a9f2fa13cf898d2262ac090a9df64efe6cb4b69c4a1896e39ed1bf6dcfb947464736f6c63430008140033",
  "linkReferences": {},
  "deployedLinkReferences": {}
}