{
  "_format": "hh-sol-artifact-1",
  "contractName": "Uruk",
  "sourceName": "contracts/Uruk.sol",
  "abi": [
    {
      "inputs": [
        {
          "internalType": "uint256",
          "name": "_articleId",
          "type": "uint256"
        },
        {
          "internalType": "string",
          "name": "_comment",
          "type": "string"
        }
      ],
      "name": "addComment",
      "outputs": [],
      "stateMutability": "nonpayable",
      "type": "function"
    },
    {
      "inputs": [
        {
          "internalType": "uint256",
          "name": "",
          "type": "uint256"
        }
      ],
      "name": "articles",
      "outputs": [
        {
          "internalType": "address",
          "name": "owner",
          "type": "address"
        },
        {
          "internalType": "uint256",
          "name": "id",
          "type": "uint256"
        },
        {
          "internalType": "string",
          "name": "content",
          "type": "string"
        },
        {
          "internalType": "uint256",
          "name": "timestamp",
          "type": "uint256"
        },
        {
          "internalType": "uint256",
          "name": "support",
          "type": "uint256"
        }
      ],
      "stateMutability": "view",
      "type": "function"
    },
    {
      "inputs": [
        {
          "internalType": "string",
          "name": "_nickname",
          "type": "string"
        }
      ],
      "name": "becomeMember",
      "outputs": [],
      "stateMutability": "nonpayable",
      "type": "function"
    },
    {
      "inputs": [
        {
          "internalType": "string",
          "name": "_nickname",
          "type": "string"
        }
      ],
      "name": "changeNickname",
      "outputs": [],
      "stateMutability": "nonpayable",
      "type": "function"
    },
    {
      "inputs": [
        {
          "internalType": "uint256",
          "name": "_articleId",
          "type": "uint256"
        },
        {
          "internalType": "string",
          "name": "_newContent",
          "type": "string"
        }
      ],
      "name": "editArticle",
      "outputs": [],
      "stateMutability": "nonpayable",
      "type": "function"
    },
    {
      "inputs": [
        {
          "internalType": "uint256",
          "name": "_articleId",
          "type": "uint256"
        }
      ],
      "name": "getArticle",
      "outputs": [
        {
          "components": [
            {
              "internalType": "address",
              "name": "owner",
              "type": "address"
            },
            {
              "internalType": "uint256",
              "name": "id",
              "type": "uint256"
            },
            {
              "internalType": "string",
              "name": "content",
              "type": "string"
            },
            {
              "internalType": "uint256",
              "name": "timestamp",
              "type": "uint256"
            },
            {
              "internalType": "address[]",
              "name": "supporters",
              "type": "address[]"
            },
            {
              "internalType": "uint256",
              "name": "support",
              "type": "uint256"
            },
            {
              "components": [
                {
                  "internalType": "address",
                  "name": "owner",
                  "type": "address"
                },
                {
                  "internalType": "uint256",
                  "name": "id",
                  "type": "uint256"
                },
                {
                  "internalType": "string",
                  "name": "content",
                  "type": "string"
                },
                {
                  "internalType": "uint256",
                  "name": "timestamp",
                  "type": "uint256"
                }
              ],
              "internalType": "struct Uruk.Comment[]",
              "name": "comments",
              "type": "tuple[]"
            }
          ],
          "internalType": "struct Uruk.Article",
          "name": "_article",
          "type": "tuple"
        }
      ],
      "stateMutability": "view",
      "type": "function"
    },
    {
      "inputs": [],
      "name": "getArticleCount",
      "outputs": [
        {
          "internalType": "uint256",
          "name": "_articleCount",
          "type": "uint256"
        }
      ],
      "stateMutability": "view",
      "type": "function"
    },
    {
      "inputs": [
        {
          "internalType": "address",
          "name": "_memberAddress",
          "type": "address"
        }
      ],
      "name": "getMember",
      "outputs": [
        {
          "components": [
            {
              "internalType": "string",
              "name": "nickname",
              "type": "string"
            },
            {
              "internalType": "uint256",
              "name": "memberId",
              "type": "uint256"
            },
            {
              "internalType": "address",
              "name": "memberAddress",
              "type": "address"
            },
            {
              "internalType": "uint256",
              "name": "memberSince",
              "type": "uint256"
            },
            {
              "internalType": "uint256[]",
              "name": "ownedArticles",
              "type": "uint256[]"
            }
          ],
          "internalType": "struct Uruk.Member",
          "name": "",
          "type": "tuple"
        }
      ],
      "stateMutability": "view",
      "type": "function"
    },
    {
      "inputs": [
        {
          "internalType": "address",
          "name": "_memberAddress",
          "type": "address"
        }
      ],
      "name": "getMemberArticles",
      "outputs": [
        {
          "internalType": "uint256[]",
          "name": "",
          "type": "uint256[]"
        }
      ],
      "stateMutability": "view",
      "type": "function"
    },
    {
      "inputs": [],
      "name": "getMembers",
      "outputs": [
        {
          "internalType": "address[]",
          "name": "",
          "type": "address[]"
        }
      ],
      "stateMutability": "view",
      "type": "function"
    },
    {
      "inputs": [
        {
          "internalType": "address",
          "name": "_memberAddress",
          "type": "address"
        }
      ],
      "name": "isMember",
      "outputs": [
        {
          "internalType": "bool",
          "name": "",
          "type": "bool"
        }
      ],
      "stateMutability": "view",
      "type": "function"
    },
    {
      "inputs": [
        {
          "internalType": "uint256",
          "name": "",
          "type": "uint256"
        }
      ],
      "name": "memberAddresses",
      "outputs": [
        {
          "internalType": "address",
          "name": "",
          "type": "address"
        }
      ],
      "stateMutability": "view",
      "type": "function"
    },
    {
      "inputs": [
        {
          "internalType": "address",
          "name": "",
          "type": "address"
        }
      ],
      "name": "members",
      "outputs": [
        {
          "internalType": "string",
          "name": "nickname",
          "type": "string"
        },
        {
          "internalType": "uint256",
          "name": "memberId",
          "type": "uint256"
        },
        {
          "internalType": "address",
          "name": "memberAddress",
          "type": "address"
        },
        {
          "internalType": "uint256",
          "name": "memberSince",
          "type": "uint256"
        }
      ],
      "stateMutability": "view",
      "type": "function"
    },
    {
      "inputs": [
        {
          "internalType": "string",
          "name": "_article",
          "type": "string"
        }
      ],
      "name": "publishArticle",
      "outputs": [],
      "stateMutability": "nonpayable",
      "type": "function"
    },
    {
      "inputs": [
        {
          "internalType": "uint256",
          "name": "_articleId",
          "type": "uint256"
        },
        {
          "internalType": "uint256",
          "name": "_value",
          "type": "uint256"
        }
      ],
      "name": "supportArticle",
      "outputs": [],
      "stateMutability": "payable",
      "type": "function"
    }
  ],
  "bytecode": "0x608060405234801561001057600080fd5b50612ed3806100206000396000f3fe6080604052600436106100e85760003560e01c8063aa7e56831161008a578063df30610511610059578063df30610514610320578063e899d5ff14610349578063ec160ccf14610374578063edcfafe61461039d576100e8565b8063aa7e568314610254578063bbb850801461027d578063bd85d867146102a6578063cc4e6299146102e3576100e8565b806332ffa5c7116100c657806332ffa5c7146101865780639eab5253146101c3578063a1157cde146101ee578063a230c52414610217576100e8565b806308ae4b0c146100ed5780631f70e9281461012d5780632ada259614610149575b600080fd5b3480156100f957600080fd5b50610114600480360381019061010f9190611d5a565b6103de565b6040516101249493929190611e3f565b60405180910390f35b61014760048036038101906101429190611eb7565b6104b6565b005b34801561015557600080fd5b50610170600480360381019061016b9190611d5a565b610667565b60405161017d919061208b565b60405180910390f35b34801561019257600080fd5b506101ad60048036038101906101a89190611d5a565b610813565b6040516101ba919061211c565b60405180910390f35b3480156101cf57600080fd5b506101d86108ac565b6040516101e591906121ed565b60405180910390f35b3480156101fa57600080fd5b5061021560048036038101906102109190612344565b61093a565b005b34801561022357600080fd5b5061023e60048036038101906102399190611d5a565b610b04565b60405161024b91906123a8565b60405180910390f35b34801561026057600080fd5b5061027b600480360381019061027691906123c3565b610bde565b005b34801561028957600080fd5b506102a4600480360381019061029f9190612344565b610d41565b005b3480156102b257600080fd5b506102cd60048036038101906102c8919061241f565b610ef5565b6040516102da919061268a565b60405180910390f35b3480156102ef57600080fd5b5061030a6004803603810190610305919061241f565b61122c565b60405161031791906126ac565b60405180910390f35b34801561032c57600080fd5b5061034760048036038101906103429190612344565b61126b565b005b34801561035557600080fd5b5061035e611566565b60405161036b91906126c7565b60405180910390f35b34801561038057600080fd5b5061039b600480360381019061039691906123c3565b611573565b005b3480156103a957600080fd5b506103c460048036038101906103bf919061241f565b611a6e565b6040516103d59594939291906126e2565b60405180910390f35b60006020528060005260406000206000915090508060000180546104019061276b565b80601f016020809104026020016040519081016040528092919081815260200182805461042d9061276b565b801561047a5780601f1061044f5761010080835404028352916020019161047a565b820191906000526020600020905b81548152906001019060200180831161045d57829003601f168201915b5050505050908060010154908060020160009054906101000a900473ffffffffffffffffffffffffffffffffffffffff16908060030154905084565b6104bf33610b04565b6104fe576040517f08c379a00000000000000000000000000000000000000000000000000000000081526004016104f5906127e8565b60405180910390fd5b34811015610541576040517f08c379a000000000000000000000000000000000000000000000000000000000815260040161053890612854565b60405180910390fd5b816002805490501015610589576040517f08c379a0000000000000000000000000000000000000000000000000000000008152600401610580906128c0565b60405180910390fd5b6002600183610598919061290f565b815481106105a9576105a8612943565b5b9060005260206000209060070201600401339080600181540180825580915050600190039060005260206000200160009091909190916101000a81548173ffffffffffffffffffffffffffffffffffffffff021916908373ffffffffffffffffffffffffffffffffffffffff16021790555034600260018461062b919061290f565b8154811061063c5761063b612943565b5b9060005260206000209060070201600501600082825461065c9190612972565b925050819055505050565b61066f611b5c565b6000808373ffffffffffffffffffffffffffffffffffffffff1673ffffffffffffffffffffffffffffffffffffffff1681526020019081526020016000206040518060a00160405290816000820180546106c89061276b565b80601f01602080910402602001604051908101604052809291908181526020018280546106f49061276b565b80156107415780601f1061071657610100808354040283529160200191610741565b820191906000526020600020905b81548152906001019060200180831161072457829003601f168201915b50505050508152602001600182015481526020016002820160009054906101000a900473ffffffffffffffffffffffffffffffffffffffff1673ffffffffffffffffffffffffffffffffffffffff1673ffffffffffffffffffffffffffffffffffffffff168152602001600382015481526020016004820180548060200260200160405190810160405280929190818152602001828054801561080357602002820191906000526020600020905b8154815260200190600101908083116107ef575b5050505050815250509050919050565b60606000808373ffffffffffffffffffffffffffffffffffffffff1673ffffffffffffffffffffffffffffffffffffffff1681526020019081526020016000206004018054806020026020016040519081016040528092919081815260200182805480156108a057602002820191906000526020600020905b81548152602001906001019080831161088c575b50505050509050919050565b6060600180548060200260200160405190810160405280929190818152602001828054801561093057602002820191906000526020600020905b8160009054906101000a900473ffffffffffffffffffffffffffffffffffffffff1673ffffffffffffffffffffffffffffffffffffffff16815260200190600101908083116108e6575b5050505050905090565b61094333610b04565b610982576040517f08c379a0000000000000000000000000000000000000000000000000000000008152600401610979906127e8565b60405180910390fd5b60005b600180549050811015610ab157816040516020016109a391906129e2565b60405160208183030381529060405280519060200120600080600184815481106109d0576109cf612943565b5b9060005260206000200160009054906101000a900473ffffffffffffffffffffffffffffffffffffffff1673ffffffffffffffffffffffffffffffffffffffff1673ffffffffffffffffffffffffffffffffffffffff168152602001908152602001600020600001604051602001610a489190612a91565b6040516020818303038152906040528051906020012003610a9e576040517f08c379a0000000000000000000000000000000000000000000000000000000008152600401610a9590612af4565b60405180910390fd5b8080610aa990612b14565b915050610985565b50806000803373ffffffffffffffffffffffffffffffffffffffff1673ffffffffffffffffffffffffffffffffffffffff1681526020019081526020016000206000019081610b009190612cf3565b5050565b60008173ffffffffffffffffffffffffffffffffffffffff166000808473ffffffffffffffffffffffffffffffffffffffff1673ffffffffffffffffffffffffffffffffffffffff16815260200190815260200160002060020160009054906101000a900473ffffffffffffffffffffffffffffffffffffffff1673ffffffffffffffffffffffffffffffffffffffff1614610bd5576040517f08c379a0000000000000000000000000000000000000000000000000000000008152600401610bcc906127e8565b60405180910390fd5b60019050919050565b610be733610b04565b610c26576040517f08c379a0000000000000000000000000000000000000000000000000000000008152600401610c1d906127e8565b60405180910390fd5b600060028381548110610c3c57610c3b612943565b5b90600052602060002090600702019050600060405180608001604052803373ffffffffffffffffffffffffffffffffffffffff16815260200160018460060180549050610c899190612972565b81526020018481526020014281525090508160060181908060018154018082558091505060019003906000526020600020906004020160009091909190915060008201518160000160006101000a81548173ffffffffffffffffffffffffffffffffffffffff021916908373ffffffffffffffffffffffffffffffffffffffff160217905550602082015181600101556040820151816002019081610d2e9190612cf3565b5060608201518160030155505050505050565b610d4a33610b04565b610d89576040517f08c379a0000000000000000000000000000000000000000000000000000000008152600401610d80906127e8565b60405180910390fd5b600060026001816001815401808255809150500390600052602060002090600702019050338160000160006101000a81548173ffffffffffffffffffffffffffffffffffffffff021916908373ffffffffffffffffffffffffffffffffffffffff160217905550600280549050816001018190555081816002019081610e0f9190612cf3565b50428160030181905550600067ffffffffffffffff811115610e3457610e33612219565b5b604051908082528060200260200182016040528015610e625781602001602082028036833780820191505090505b50816004019080519060200190610e7a929190611ba1565b50600081600501819055506000803373ffffffffffffffffffffffffffffffffffffffff1673ffffffffffffffffffffffffffffffffffffffff168152602001908152602001600020600401816001015490806001815401808255809150506001900390600052602060002001600090919091909150555050565b610efd611c2b565b6002600183610f0c919061290f565b81548110610f1d57610f1c612943565b5b90600052602060002090600702016040518060e00160405290816000820160009054906101000a900473ffffffffffffffffffffffffffffffffffffffff1673ffffffffffffffffffffffffffffffffffffffff1673ffffffffffffffffffffffffffffffffffffffff16815260200160018201548152602001600282018054610fa69061276b565b80601f0160208091040260200160405190810160405280929190818152602001828054610fd29061276b565b801561101f5780601f10610ff45761010080835404028352916020019161101f565b820191906000526020600020905b81548152906001019060200180831161100257829003601f168201915b5050505050815260200160038201548152602001600482018054806020026020016040519081016040528092919081815260200182805480156110b757602002820191906000526020600020905b8160009054906101000a900473ffffffffffffffffffffffffffffffffffffffff1673ffffffffffffffffffffffffffffffffffffffff168152602001906001019080831161106d575b505050505081526020016005820154815260200160068201805480602002602001604051908101604052809291908181526020016000905b8282101561121d57838290600052602060002090600402016040518060800160405290816000820160009054906101000a900473ffffffffffffffffffffffffffffffffffffffff1673ffffffffffffffffffffffffffffffffffffffff1673ffffffffffffffffffffffffffffffffffffffff168152602001600182015481526020016002820180546111829061276b565b80601f01602080910402602001604051908101604052809291908181526020018280546111ae9061276b565b80156111fb5780601f106111d0576101008083540402835291602001916111fb565b820191906000526020600020905b8154815290600101906020018083116111de57829003601f168201915b50505050508152602001600382015481525050815260200190600101906110ef565b50505050815250509050919050565b6001818154811061123c57600080fd5b906000526020600020016000915054906101000a900473ffffffffffffffffffffffffffffffffffffffff1681565b60005b60018054905081101561139a578160405160200161128c91906129e2565b60405160208183030381529060405280519060200120600080600184815481106112b9576112b8612943565b5b9060005260206000200160009054906101000a900473ffffffffffffffffffffffffffffffffffffffff1673ffffffffffffffffffffffffffffffffffffffff1673ffffffffffffffffffffffffffffffffffffffff1681526020019081526020016000206000016040516020016113319190612a91565b6040516020818303038152906040528051906020012003611387576040517f08c379a000000000000000000000000000000000000000000000000000000000815260040161137e90612af4565b60405180910390fd5b808061139290612b14565b91505061126e565b506040518060a00160405280828152602001600180805490506113bd9190612972565b81526020013373ffffffffffffffffffffffffffffffffffffffff168152602001428152602001600067ffffffffffffffff8111156113ff576113fe612219565b5b60405190808252806020026020018201604052801561142d5781602001602082028036833780820191505090505b508152506000803373ffffffffffffffffffffffffffffffffffffffff1673ffffffffffffffffffffffffffffffffffffffff16815260200190815260200160002060008201518160000190816114849190612cf3565b506020820151816001015560408201518160020160006101000a81548173ffffffffffffffffffffffffffffffffffffffff021916908373ffffffffffffffffffffffffffffffffffffffff1602179055506060820151816003015560808201518160040190805190602001906114fc929190611c7e565b509050506001339080600181540180825580915050600190039060005260206000200160009091909190916101000a81548173ffffffffffffffffffffffffffffffffffffffff021916908373ffffffffffffffffffffffffffffffffffffffff16021790555050565b6000600280549050905090565b61157c33610b04565b6115bb576040517f08c379a00000000000000000000000000000000000000000000000000000000081526004016115b2906127e8565b60405180910390fd5b3373ffffffffffffffffffffffffffffffffffffffff1660026001846115e1919061290f565b815481106115f2576115f1612943565b5b906000526020600020906007020160000160009054906101000a900473ffffffffffffffffffffffffffffffffffffffff1673ffffffffffffffffffffffffffffffffffffffff161461167a576040517f08c379a000000000000000000000000000000000000000000000000000000000815260040161167190612e11565b60405180910390fd5b8160028054905010156116c2576040517f08c379a00000000000000000000000000000000000000000000000000000000081526004016116b990612e7d565b60405180910390fd5b600060026001846116d3919061290f565b815481106116e4576116e3612943565b5b90600052602060002090600702016040518060e00160405290816000820160009054906101000a900473ffffffffffffffffffffffffffffffffffffffff1673ffffffffffffffffffffffffffffffffffffffff1673ffffffffffffffffffffffffffffffffffffffff1681526020016001820154815260200160028201805461176d9061276b565b80601f01602080910402602001604051908101604052809291908181526020018280546117999061276b565b80156117e65780601f106117bb576101008083540402835291602001916117e6565b820191906000526020600020905b8154815290600101906020018083116117c957829003601f168201915b50505050508152602001600382015481526020016004820180548060200260200160405190810160405280929190818152602001828054801561187e57602002820191906000526020600020905b8160009054906101000a900473ffffffffffffffffffffffffffffffffffffffff1673ffffffffffffffffffffffffffffffffffffffff1681526020019060010190808311611834575b505050505081526020016005820154815260200160068201805480602002602001604051908101604052809291908181526020016000905b828210156119e457838290600052602060002090600402016040518060800160405290816000820160009054906101000a900473ffffffffffffffffffffffffffffffffffffffff1673ffffffffffffffffffffffffffffffffffffffff1673ffffffffffffffffffffffffffffffffffffffff168152602001600182015481526020016002820180546119499061276b565b80601f01602080910402602001604051908101604052809291908181526020018280546119759061276b565b80156119c25780601f10611997576101008083540402835291602001916119c2565b820191906000526020600020905b8154815290600101906020018083116119a557829003601f168201915b50505050508152602001600382015481525050815260200190600101906118b6565b505050508152505090503373ffffffffffffffffffffffffffffffffffffffff16816000015173ffffffffffffffffffffffffffffffffffffffff1614611a2a57600080fd5b816002600185611a3a919061290f565b81548110611a4b57611a4a612943565b5b90600052602060002090600702016002019081611a689190612cf3565b50505050565b60028181548110611a7e57600080fd5b90600052602060002090600702016000915090508060000160009054906101000a900473ffffffffffffffffffffffffffffffffffffffff1690806001015490806002018054611acd9061276b565b80601f0160208091040260200160405190810160405280929190818152602001828054611af99061276b565b8015611b465780601f10611b1b57610100808354040283529160200191611b46565b820191906000526020600020905b815481529060010190602001808311611b2957829003601f168201915b5050505050908060030154908060050154905085565b6040518060a001604052806060815260200160008152602001600073ffffffffffffffffffffffffffffffffffffffff16815260200160008152602001606081525090565b828054828255906000526020600020908101928215611c1a579160200282015b82811115611c195782518260006101000a81548173ffffffffffffffffffffffffffffffffffffffff021916908373ffffffffffffffffffffffffffffffffffffffff16021790555091602001919060010190611bc1565b5b509050611c279190611ccb565b5090565b6040518060e00160405280600073ffffffffffffffffffffffffffffffffffffffff1681526020016000815260200160608152602001600081526020016060815260200160008152602001606081525090565b828054828255906000526020600020908101928215611cba579160200282015b82811115611cb9578251825591602001919060010190611c9e565b5b509050611cc79190611ccb565b5090565b5b80821115611ce4576000816000905550600101611ccc565b5090565b6000604051905090565b600080fd5b600080fd5b600073ffffffffffffffffffffffffffffffffffffffff82169050919050565b6000611d2782611cfc565b9050919050565b611d3781611d1c565b8114611d4257600080fd5b50565b600081359050611d5481611d2e565b92915050565b600060208284031215611d7057611d6f611cf2565b5b6000611d7e84828501611d45565b91505092915050565b600081519050919050565b600082825260208201905092915050565b60005b83811015611dc1578082015181840152602081019050611da6565b60008484015250505050565b6000601f19601f8301169050919050565b6000611de982611d87565b611df38185611d92565b9350611e03818560208601611da3565b611e0c81611dcd565b840191505092915050565b6000819050919050565b611e2a81611e17565b82525050565b611e3981611d1c565b82525050565b60006080820190508181036000830152611e598187611dde565b9050611e686020830186611e21565b611e756040830185611e30565b611e826060830184611e21565b95945050505050565b611e9481611e17565b8114611e9f57600080fd5b50565b600081359050611eb181611e8b565b92915050565b60008060408385031215611ece57611ecd611cf2565b5b6000611edc85828601611ea2565b9250506020611eed85828601611ea2565b9150509250929050565b600082825260208201905092915050565b6000611f1382611d87565b611f1d8185611ef7565b9350611f2d818560208601611da3565b611f3681611dcd565b840191505092915050565b611f4a81611e17565b82525050565b611f5981611d1c565b82525050565b600081519050919050565b600082825260208201905092915050565b6000819050602082019050919050565b6000611f978383611f41565b60208301905092915050565b6000602082019050919050565b6000611fbb82611f5f565b611fc58185611f6a565b9350611fd083611f7b565b8060005b83811015612001578151611fe88882611f8b565b9750611ff383611fa3565b925050600181019050611fd4565b5085935050505092915050565b600060a083016000830151848203600086015261202b8282611f08565b91505060208301516120406020860182611f41565b5060408301516120536040860182611f50565b5060608301516120666060860182611f41565b506080830151848203608086015261207e8282611fb0565b9150508091505092915050565b600060208201905081810360008301526120a5818461200e565b905092915050565b600082825260208201905092915050565b60006120c982611f5f565b6120d381856120ad565b93506120de83611f7b565b8060005b8381101561210f5781516120f68882611f8b565b975061210183611fa3565b9250506001810190506120e2565b5085935050505092915050565b6000602082019050818103600083015261213681846120be565b905092915050565b600081519050919050565b600082825260208201905092915050565b6000819050602082019050919050565b60006121768383611f50565b60208301905092915050565b6000602082019050919050565b600061219a8261213e565b6121a48185612149565b93506121af8361215a565b8060005b838110156121e05781516121c7888261216a565b97506121d283612182565b9250506001810190506121b3565b5085935050505092915050565b60006020820190508181036000830152612207818461218f565b905092915050565b600080fd5b600080fd5b7f4e487b7100000000000000000000000000000000000000000000000000000000600052604160045260246000fd5b61225182611dcd565b810181811067ffffffffffffffff821117156122705761226f612219565b5b80604052505050565b6000612283611ce8565b905061228f8282612248565b919050565b600067ffffffffffffffff8211156122af576122ae612219565b5b6122b882611dcd565b9050602081019050919050565b82818337600083830152505050565b60006122e76122e284612294565b612279565b90508281526020810184848401111561230357612302612214565b5b61230e8482856122c5565b509392505050565b600082601f83011261232b5761232a61220f565b5b813561233b8482602086016122d4565b91505092915050565b60006020828403121561235a57612359611cf2565b5b600082013567ffffffffffffffff81111561237857612377611cf7565b5b61238484828501612316565b91505092915050565b60008115159050919050565b6123a28161238d565b82525050565b60006020820190506123bd6000830184612399565b92915050565b600080604083850312156123da576123d9611cf2565b5b60006123e885828601611ea2565b925050602083013567ffffffffffffffff81111561240957612408611cf7565b5b61241585828601612316565b9150509250929050565b60006020828403121561243557612434611cf2565b5b600061244384828501611ea2565b91505092915050565b600082825260208201905092915050565b60006124688261213e565b612472818561244c565b935061247d8361215a565b8060005b838110156124ae578151612495888261216a565b97506124a083612182565b925050600181019050612481565b5085935050505092915050565b600081519050919050565b600082825260208201905092915050565b6000819050602082019050919050565b60006080830160008301516124ff6000860182611f50565b5060208301516125126020860182611f41565b506040830151848203604086015261252a8282611f08565b915050606083015161253f6060860182611f41565b508091505092915050565b600061255683836124e7565b905092915050565b6000602082019050919050565b6000612576826124bb565b61258081856124c6565b935083602082028501612592856124d7565b8060005b858110156125ce57848403895281516125af858261254a565b94506125ba8361255e565b925060208a01995050600181019050612596565b50829750879550505050505092915050565b600060e0830160008301516125f86000860182611f50565b50602083015161260b6020860182611f41565b50604083015184820360408601526126238282611f08565b91505060608301516126386060860182611f41565b5060808301518482036080860152612650828261245d565b91505060a083015161266560a0860182611f41565b5060c083015184820360c086015261267d828261256b565b9150508091505092915050565b600060208201905081810360008301526126a481846125e0565b905092915050565b60006020820190506126c16000830184611e30565b92915050565b60006020820190506126dc6000830184611e21565b92915050565b600060a0820190506126f76000830188611e30565b6127046020830187611e21565b81810360408301526127168186611dde565b90506127256060830185611e21565b6127326080830184611e21565b9695505050505050565b7f4e487b7100000000000000000000000000000000000000000000000000000000600052602260045260246000fd5b6000600282049050600182168061278357607f821691505b6020821081036127965761279561273c565b5b50919050565b7f4e6f742061206d656d6265720000000000000000000000000000000000000000600082015250565b60006127d2600c83611d92565b91506127dd8261279c565b602082019050919050565b60006020820190508181036000830152612801816127c5565b9050919050565b7f4e6f7420656e6f75676820657468657200000000000000000000000000000000600082015250565b600061283e601083611d92565b915061284982612808565b602082019050919050565b6000602082019050818103600083015261286d81612831565b9050919050565b7f61727469636c6520646f65736e27742065786973740000000000000000000000600082015250565b60006128aa601583611d92565b91506128b582612874565b602082019050919050565b600060208201905081810360008301526128d98161289d565b9050919050565b7f4e487b7100000000000000000000000000000000000000000000000000000000600052601160045260246000fd5b600061291a82611e17565b915061292583611e17565b925082820390508181111561293d5761293c6128e0565b5b92915050565b7f4e487b7100000000000000000000000000000000000000000000000000000000600052603260045260246000fd5b600061297d82611e17565b915061298883611e17565b92508282019050808211156129a05761299f6128e0565b5b92915050565b600081905092915050565b60006129bc82611d87565b6129c681856129a6565b93506129d6818560208601611da3565b80840191505092915050565b60006129ee82846129b1565b915081905092915050565b60008190508160005260206000209050919050565b60008154612a1b8161276b565b612a2581866129a6565b94506001821660008114612a405760018114612a5557612a88565b60ff1983168652811515820286019350612a88565b612a5e856129f9565b60005b83811015612a8057815481890152600182019150602081019050612a61565b838801955050505b50505092915050565b6000612a9d8284612a0e565b915081905092915050565b7f4e69636b6e616d6520616c72656164792074616b656e00000000000000000000600082015250565b6000612ade601683611d92565b9150612ae982612aa8565b602082019050919050565b60006020820190508181036000830152612b0d81612ad1565b9050919050565b6000612b1f82611e17565b91507fffffffffffffffffffffffffffffffffffffffffffffffffffffffffffffffff8203612b5157612b506128e0565b5b600182019050919050565b60006020601f8301049050919050565b600082821b905092915050565b600060088302612ba97fffffffffffffffffffffffffffffffffffffffffffffffffffffffffffffffff82612b6c565b612bb38683612b6c565b95508019841693508086168417925050509392505050565b6000819050919050565b6000612bf0612beb612be684611e17565b612bcb565b611e17565b9050919050565b6000819050919050565b612c0a83612bd5565b612c1e612c1682612bf7565b848454612b79565b825550505050565b600090565b612c33612c26565b612c3e818484612c01565b505050565b5b81811015612c6257612c57600082612c2b565b600181019050612c44565b5050565b601f821115612ca757612c78816129f9565b612c8184612b5c565b81016020851015612c90578190505b612ca4612c9c85612b5c565b830182612c43565b50505b505050565b600082821c905092915050565b6000612cca60001984600802612cac565b1980831691505092915050565b6000612ce38383612cb9565b9150826002028217905092915050565b612cfc82611d87565b67ffffffffffffffff811115612d1557612d14612219565b5b612d1f825461276b565b612d2a828285612c66565b600060209050601f831160018114612d5d5760008415612d4b578287015190505b612d558582612cd7565b865550612dbd565b601f198416612d6b866129f9565b60005b82811015612d9357848901518255600182019150602085019450602081019050612d6e565b86831015612db05784890151612dac601f891682612cb9565b8355505b6001600288020188555050505b505050505050565b7f4f6e6c79206f776e6572732063616e2065646974207468652061727469636c65600082015250565b6000612dfb602083611d92565b9150612e0682612dc5565b602082019050919050565b60006020820190508181036000830152612e2a81612dee565b9050919050565b7f41727469636c6520646f65736e27742065786973740000000000000000000000600082015250565b6000612e67601583611d92565b9150612e7282612e31565b602082019050919050565b60006020820190508181036000830152612e9681612e5a565b905091905056fea2646970667358221220dbdb29303decdb89d40c5ba1e7ba03b9b78abdc4571ccffab900b9c5115b755864736f6c63430008140033",
  "linkReferences": {},
  "deployedLinkReferences": {}
}