{
  "_format": "hh-sol-artifact-1",
  "contractName": "Uruk",
  "sourceName": "contracts/Uruk.sol",
  "abi": [
    {
      "inputs": [
        {
          "internalType": "address",
          "name": "_postOwner",
          "type": "address"
        },
        {
          "internalType": "uint256",
          "name": "_postId",
          "type": "uint256"
        },
        {
          "internalType": "string",
          "name": "_comment",
          "type": "string"
        }
      ],
      "name": "addComment",
      "outputs": [],
      "stateMutability": "nonpayable",
      "type": "function"
    },
    {
      "inputs": [
        {
          "internalType": "string",
          "name": "_nickname",
          "type": "string"
        }
      ],
      "name": "becomeMember",
      "outputs": [],
      "stateMutability": "nonpayable",
      "type": "function"
    },
    {
      "inputs": [
        {
          "internalType": "string",
          "name": "_nickname",
          "type": "string"
        }
      ],
      "name": "changeNickname",
      "outputs": [],
      "stateMutability": "nonpayable",
      "type": "function"
    },
    {
      "inputs": [
        {
          "internalType": "address",
          "name": "_memberAddress",
          "type": "address"
        }
      ],
      "name": "connect",
      "outputs": [],
      "stateMutability": "nonpayable",
      "type": "function"
    },
    {
      "inputs": [
        {
          "internalType": "address",
          "name": "",
          "type": "address"
        },
        {
          "internalType": "uint256",
          "name": "",
          "type": "uint256"
        }
      ],
      "name": "connections",
      "outputs": [
        {
          "internalType": "address",
          "name": "",
          "type": "address"
        }
      ],
      "stateMutability": "view",
      "type": "function"
    },
    {
      "inputs": [
        {
          "internalType": "address",
          "name": "_postOwner",
          "type": "address"
        },
        {
          "internalType": "uint256",
          "name": "_postId",
          "type": "uint256"
        },
        {
          "internalType": "uint256",
          "name": "_commentId",
          "type": "uint256"
        }
      ],
      "name": "deleteComment",
      "outputs": [],
      "stateMutability": "nonpayable",
      "type": "function"
    },
    {
      "inputs": [
        {
          "internalType": "uint256",
          "name": "_postId",
          "type": "uint256"
        }
      ],
      "name": "deletePost",
      "outputs": [],
      "stateMutability": "nonpayable",
      "type": "function"
    },
    {
      "inputs": [
        {
          "internalType": "address",
          "name": "_memberAddress",
          "type": "address"
        }
      ],
      "name": "disconnect",
      "outputs": [],
      "stateMutability": "nonpayable",
      "type": "function"
    },
    {
      "inputs": [
        {
          "internalType": "uint256",
          "name": "_postId",
          "type": "uint256"
        },
        {
          "internalType": "string",
          "name": "_newContent",
          "type": "string"
        }
      ],
      "name": "editPost",
      "outputs": [],
      "stateMutability": "nonpayable",
      "type": "function"
    },
    {
      "inputs": [
        {
          "internalType": "address",
          "name": "_memberAddress",
          "type": "address"
        }
      ],
      "name": "getMember",
      "outputs": [
        {
          "components": [
            {
              "internalType": "string",
              "name": "nickname",
              "type": "string"
            },
            {
              "internalType": "uint256",
              "name": "memberIndex",
              "type": "uint256"
            },
            {
              "internalType": "address",
              "name": "memberAddress",
              "type": "address"
            },
            {
              "internalType": "uint256",
              "name": "memberSince",
              "type": "uint256"
            }
          ],
          "internalType": "struct Uruk.Member",
          "name": "",
          "type": "tuple"
        }
      ],
      "stateMutability": "view",
      "type": "function"
    },
    {
      "inputs": [
        {
          "internalType": "address",
          "name": "_memberAddress",
          "type": "address"
        }
      ],
      "name": "getMemberConnections",
      "outputs": [
        {
          "internalType": "address[]",
          "name": "",
          "type": "address[]"
        }
      ],
      "stateMutability": "view",
      "type": "function"
    },
    {
      "inputs": [
        {
          "internalType": "address",
          "name": "_memberAddress",
          "type": "address"
        }
      ],
      "name": "getMemberPosts",
      "outputs": [
        {
          "components": [
            {
              "internalType": "address",
              "name": "owner",
              "type": "address"
            },
            {
              "internalType": "uint256",
              "name": "id",
              "type": "uint256"
            },
            {
              "internalType": "string",
              "name": "content",
              "type": "string"
            },
            {
              "internalType": "uint256",
              "name": "timestamp",
              "type": "uint256"
            },
            {
              "components": [
                {
                  "internalType": "address",
                  "name": "owner",
                  "type": "address"
                },
                {
                  "internalType": "uint256",
                  "name": "id",
                  "type": "uint256"
                },
                {
                  "internalType": "string",
                  "name": "content",
                  "type": "string"
                },
                {
                  "internalType": "uint256",
                  "name": "timestamp",
                  "type": "uint256"
                }
              ],
              "internalType": "struct Uruk.Comment[]",
              "name": "comments",
              "type": "tuple[]"
            }
          ],
          "internalType": "struct Uruk.Post[]",
          "name": "",
          "type": "tuple[]"
        }
      ],
      "stateMutability": "view",
      "type": "function"
    },
    {
      "inputs": [],
      "name": "getMembers",
      "outputs": [
        {
          "internalType": "address[]",
          "name": "",
          "type": "address[]"
        }
      ],
      "stateMutability": "view",
      "type": "function"
    },
    {
      "inputs": [
        {
          "internalType": "uint256",
          "name": "",
          "type": "uint256"
        }
      ],
      "name": "memberAddresses",
      "outputs": [
        {
          "internalType": "address",
          "name": "",
          "type": "address"
        }
      ],
      "stateMutability": "view",
      "type": "function"
    },
    {
      "inputs": [
        {
          "internalType": "address",
          "name": "",
          "type": "address"
        }
      ],
      "name": "members",
      "outputs": [
        {
          "internalType": "string",
          "name": "nickname",
          "type": "string"
        },
        {
          "internalType": "uint256",
          "name": "memberIndex",
          "type": "uint256"
        },
        {
          "internalType": "address",
          "name": "memberAddress",
          "type": "address"
        },
        {
          "internalType": "uint256",
          "name": "memberSince",
          "type": "uint256"
        }
      ],
      "stateMutability": "view",
      "type": "function"
    },
    {
      "inputs": [
        {
          "internalType": "string",
          "name": "_post",
          "type": "string"
        }
      ],
      "name": "post",
      "outputs": [],
      "stateMutability": "nonpayable",
      "type": "function"
    },
    {
      "inputs": [
        {
          "internalType": "address",
          "name": "",
          "type": "address"
        },
        {
          "internalType": "uint256",
          "name": "",
          "type": "uint256"
        }
      ],
      "name": "posts",
      "outputs": [
        {
          "internalType": "address",
          "name": "owner",
          "type": "address"
        },
        {
          "internalType": "uint256",
          "name": "id",
          "type": "uint256"
        },
        {
          "internalType": "string",
          "name": "content",
          "type": "string"
        },
        {
          "internalType": "uint256",
          "name": "timestamp",
          "type": "uint256"
        }
      ],
      "stateMutability": "view",
      "type": "function"
    }
  ],
  "bytecode": "0x608060405234801561001057600080fd5b506141c0806100206000396000f3fe608060405234801561001057600080fd5b506004361061010b5760003560e01c80639eab5253116100a2578063cc4e629911610071578063cc4e6299146102e0578063df30610514610310578063e30494e11461032c578063ee8f931b14610348578063fa99654a146103645761010b565b80639eab52531461026e578063a1157cde1461028c578063aae741c4146102a8578063cbf24339146102c45761010b565b8063699daefb116100de578063699daefb146101c257806377b2dc55146101f25780637a65b551146102225780638ee93cf3146102525761010b565b806308ae4b0c14610110578063094cd5ee146101435780632ada25961461015f5780635c538df31461018f575b600080fd5b61012a60048036038101906101259190612feb565b610380565b60405161013a94939291906130d0565b60405180910390f35b61015d60048036038101906101589190613148565b610458565b005b61017960048036038101906101749190612feb565b6108d0565b6040516101869190613240565b60405180910390f35b6101a960048036038101906101a49190613262565b610a24565b6040516101b994939291906132a2565b60405180910390f35b6101dc60048036038101906101d79190612feb565b610b19565b6040516101e99190613552565b60405180910390f35b61020c60048036038101906102079190612feb565b610e0e565b6040516102199190613623565b60405180910390f35b61023c60048036038101906102379190613262565b610edb565b6040516102499190613645565b60405180910390f35b61026c60048036038101906102679190613795565b610f29565b005b610276611106565b6040516102839190613623565b60405180910390f35b6102a660048036038101906102a19190613795565b611194565b005b6102c260048036038101906102bd91906137de565b6113e5565b005b6102de60048036038101906102d99190612feb565b611619565b005b6102fa60048036038101906102f59190613148565b611e04565b6040516103079190613645565b60405180910390f35b61032a60048036038101906103259190613795565b611e43565b005b6103466004803603810190610341919061384d565b6121a2565b005b610362600480360381019061035d9190612feb565b6128bf565b005b61037e600480360381019061037991906138a0565b612ba0565b005b60006020528060005260406000206000915090508060000180546103a39061392b565b80601f01602080910402602001604051908101604052809291908181526020018280546103cf9061392b565b801561041c5780601f106103f15761010080835404028352916020019161041c565b820191906000526020600020905b8154815290600101906020018083116103ff57829003601f168201915b5050505050908060010154908060020160009054906101000a900473ffffffffffffffffffffffffffffffffffffffff16908060030154905084565b3373ffffffffffffffffffffffffffffffffffffffff166000803373ffffffffffffffffffffffffffffffffffffffff1673ffffffffffffffffffffffffffffffffffffffff16815260200190815260200160002060020160009054906101000a900473ffffffffffffffffffffffffffffffffffffffff1673ffffffffffffffffffffffffffffffffffffffff1614610527576040517f08c379a000000000000000000000000000000000000000000000000000000000815260040161051e906139a8565b60405180910390fd5b80600160003373ffffffffffffffffffffffffffffffffffffffff1673ffffffffffffffffffffffffffffffffffffffff1681526020019081526020016000208054905010156105ac576040517f08c379a00000000000000000000000000000000000000000000000000000000081526004016105a390613a14565b60405180910390fd5b60006001826105bb9190613a63565b90505b60018060003373ffffffffffffffffffffffffffffffffffffffff1673ffffffffffffffffffffffffffffffffffffffff1681526020019081526020016000208054905061060c9190613a63565b81101561080d57600160003373ffffffffffffffffffffffffffffffffffffffff1673ffffffffffffffffffffffffffffffffffffffff16815260200190815260200160002060018261065f9190613a97565b815481106106705761066f613acb565b5b9060005260206000209060050201600160003373ffffffffffffffffffffffffffffffffffffffff1673ffffffffffffffffffffffffffffffffffffffff16815260200190815260200160002082815481106106cf576106ce613acb565b5b90600052602060002090600502016000820160009054906101000a900473ffffffffffffffffffffffffffffffffffffffff168160000160006101000a81548173ffffffffffffffffffffffffffffffffffffffff021916908373ffffffffffffffffffffffffffffffffffffffff16021790555060018201548160010155600282018160020190816107629190613cbc565b50600382015481600301556004820181600401908054610783929190612d74565b509050506001816107949190613a63565b600160003373ffffffffffffffffffffffffffffffffffffffff1673ffffffffffffffffffffffffffffffffffffffff16815260200190815260200160002082815481106107e5576107e4613acb565b5b906000526020600020906005020160010181905550808061080590613da4565b9150506105be565b50600160003373ffffffffffffffffffffffffffffffffffffffff1673ffffffffffffffffffffffffffffffffffffffff16815260200190815260200160002080548061085d5761085c613dec565b5b6001900381819060005260206000209060050201600080820160006101000a81549073ffffffffffffffffffffffffffffffffffffffff021916905560018201600090556002820160006108b19190612e5c565b60038201600090556004820160006108c99190612e9c565b5050905550565b6108d8612ec0565b6000808373ffffffffffffffffffffffffffffffffffffffff1673ffffffffffffffffffffffffffffffffffffffff1681526020019081526020016000206040518060800160405290816000820180546109319061392b565b80601f016020809104026020016040519081016040528092919081815260200182805461095d9061392b565b80156109aa5780601f1061097f576101008083540402835291602001916109aa565b820191906000526020600020905b81548152906001019060200180831161098d57829003601f168201915b50505050508152602001600182015481526020016002820160009054906101000a900473ffffffffffffffffffffffffffffffffffffffff1673ffffffffffffffffffffffffffffffffffffffff1673ffffffffffffffffffffffffffffffffffffffff1681526020016003820154815250509050919050565b60016020528160005260406000208181548110610a4057600080fd5b9060005260206000209060050201600091509150508060000160009054906101000a900473ffffffffffffffffffffffffffffffffffffffff1690806001015490806002018054610a909061392b565b80601f0160208091040260200160405190810160405280929190818152602001828054610abc9061392b565b8015610b095780601f10610ade57610100808354040283529160200191610b09565b820191906000526020600020905b815481529060010190602001808311610aec57829003601f168201915b5050505050908060030154905084565b6060600160008373ffffffffffffffffffffffffffffffffffffffff1673ffffffffffffffffffffffffffffffffffffffff168152602001908152602001600020805480602002602001604051908101604052809291908181526020016000905b82821015610e0357838290600052602060002090600502016040518060a00160405290816000820160009054906101000a900473ffffffffffffffffffffffffffffffffffffffff1673ffffffffffffffffffffffffffffffffffffffff1673ffffffffffffffffffffffffffffffffffffffff16815260200160018201548152602001600282018054610c0d9061392b565b80601f0160208091040260200160405190810160405280929190818152602001828054610c399061392b565b8015610c865780601f10610c5b57610100808354040283529160200191610c86565b820191906000526020600020905b815481529060010190602001808311610c6957829003601f168201915b505050505081526020016003820154815260200160048201805480602002602001604051908101604052809291908181526020016000905b82821015610dec57838290600052602060002090600402016040518060800160405290816000820160009054906101000a900473ffffffffffffffffffffffffffffffffffffffff1673ffffffffffffffffffffffffffffffffffffffff1673ffffffffffffffffffffffffffffffffffffffff16815260200160018201548152602001600282018054610d519061392b565b80601f0160208091040260200160405190810160405280929190818152602001828054610d7d9061392b565b8015610dca5780601f10610d9f57610100808354040283529160200191610dca565b820191906000526020600020905b815481529060010190602001808311610dad57829003601f168201915b5050505050815260200160038201548152505081526020019060010190610cbe565b505050508152505081526020019060010190610b7a565b505050509050919050565b6060600260008373ffffffffffffffffffffffffffffffffffffffff1673ffffffffffffffffffffffffffffffffffffffff168152602001908152602001600020805480602002602001604051908101604052809291908181526020018280548015610ecf57602002820191906000526020600020905b8160009054906101000a900473ffffffffffffffffffffffffffffffffffffffff1673ffffffffffffffffffffffffffffffffffffffff1681526020019060010190808311610e85575b50505050509050919050565b60026020528160005260406000208181548110610ef757600080fd5b906000526020600020016000915091509054906101000a900473ffffffffffffffffffffffffffffffffffffffff1681565b3373ffffffffffffffffffffffffffffffffffffffff166000803373ffffffffffffffffffffffffffffffffffffffff1673ffffffffffffffffffffffffffffffffffffffff16815260200190815260200160002060020160009054906101000a900473ffffffffffffffffffffffffffffffffffffffff1673ffffffffffffffffffffffffffffffffffffffff1614610ff8576040517f08c379a0000000000000000000000000000000000000000000000000000000008152600401610fef906139a8565b60405180910390fd5b6000600160003373ffffffffffffffffffffffffffffffffffffffff1673ffffffffffffffffffffffffffffffffffffffff1681526020019081526020016000206001816001815401808255809150500390600052602060002090600502019050338160000160006101000a81548173ffffffffffffffffffffffffffffffffffffffff021916908373ffffffffffffffffffffffffffffffffffffffff160217905550600160003373ffffffffffffffffffffffffffffffffffffffff1673ffffffffffffffffffffffffffffffffffffffff168152602001908152602001600020805490508160010181905550818160020190816110f89190613e1b565b504281600301819055505050565b6060600380548060200260200160405190810160405280929190818152602001828054801561118a57602002820191906000526020600020905b8160009054906101000a900473ffffffffffffffffffffffffffffffffffffffff1673ffffffffffffffffffffffffffffffffffffffff1681526020019060010190808311611140575b5050505050905090565b3373ffffffffffffffffffffffffffffffffffffffff166000803373ffffffffffffffffffffffffffffffffffffffff1673ffffffffffffffffffffffffffffffffffffffff16815260200190815260200160002060020160009054906101000a900473ffffffffffffffffffffffffffffffffffffffff1673ffffffffffffffffffffffffffffffffffffffff1614611263576040517f08c379a000000000000000000000000000000000000000000000000000000000815260040161125a906139a8565b60405180910390fd5b60005b60038054905081101561139257816040516020016112849190613f29565b60405160208183030381529060405280519060200120600080600384815481106112b1576112b0613acb565b5b9060005260206000200160009054906101000a900473ffffffffffffffffffffffffffffffffffffffff1673ffffffffffffffffffffffffffffffffffffffff1673ffffffffffffffffffffffffffffffffffffffff1681526020019081526020016000206000016040516020016113299190613fc3565b604051602081830303815290604052805190602001200361137f576040517f08c379a000000000000000000000000000000000000000000000000000000000815260040161137690614026565b60405180910390fd5b808061138a90613da4565b915050611266565b50806000803373ffffffffffffffffffffffffffffffffffffffff1673ffffffffffffffffffffffffffffffffffffffff16815260200190815260200160002060000190816113e19190613e1b565b5050565b3373ffffffffffffffffffffffffffffffffffffffff166000803373ffffffffffffffffffffffffffffffffffffffff1673ffffffffffffffffffffffffffffffffffffffff16815260200190815260200160002060020160009054906101000a900473ffffffffffffffffffffffffffffffffffffffff1673ffffffffffffffffffffffffffffffffffffffff16146114b4576040517f08c379a00000000000000000000000000000000000000000000000000000000081526004016114ab906139a8565b60405180910390fd5b6000600160008573ffffffffffffffffffffffffffffffffffffffff1673ffffffffffffffffffffffffffffffffffffffff1681526020019081526020016000206001846115029190613a63565b8154811061151357611512613acb565b5b90600052602060002090600502019050600060405180608001604052803373ffffffffffffffffffffffffffffffffffffffff168152602001600184600401805490506115609190613a97565b81526020018481526020014281525090508160040181908060018154018082558091505060019003906000526020600020906004020160009091909190915060008201518160000160006101000a81548173ffffffffffffffffffffffffffffffffffffffff021916908373ffffffffffffffffffffffffffffffffffffffff1602179055506020820151816001015560408201518160020190816116059190613e1b565b506060820151816003015550505050505050565b3373ffffffffffffffffffffffffffffffffffffffff166000803373ffffffffffffffffffffffffffffffffffffffff1673ffffffffffffffffffffffffffffffffffffffff16815260200190815260200160002060020160009054906101000a900473ffffffffffffffffffffffffffffffffffffffff1673ffffffffffffffffffffffffffffffffffffffff16146116e8576040517f08c379a00000000000000000000000000000000000000000000000000000000081526004016116df906139a8565b60405180910390fd5b8073ffffffffffffffffffffffffffffffffffffffff166000808373ffffffffffffffffffffffffffffffffffffffff1673ffffffffffffffffffffffffffffffffffffffff16815260200190815260200160002060020160009054906101000a900473ffffffffffffffffffffffffffffffffffffffff1673ffffffffffffffffffffffffffffffffffffffff16146117b7576040517f08c379a00000000000000000000000000000000000000000000000000000000081526004016117ae906139a8565b60405180910390fd5b60005b600260003373ffffffffffffffffffffffffffffffffffffffff1673ffffffffffffffffffffffffffffffffffffffff16815260200190815260200160002080549050811015611adb578173ffffffffffffffffffffffffffffffffffffffff16600260003373ffffffffffffffffffffffffffffffffffffffff1673ffffffffffffffffffffffffffffffffffffffff168152602001908152602001600020828154811061186c5761186b613acb565b5b9060005260206000200160009054906101000a900473ffffffffffffffffffffffffffffffffffffffff1673ffffffffffffffffffffffffffffffffffffffff1603611ac85760008190505b6001600260003373ffffffffffffffffffffffffffffffffffffffff1673ffffffffffffffffffffffffffffffffffffffff168152602001908152602001600020805490506119079190613a63565b811015611a4257600260003373ffffffffffffffffffffffffffffffffffffffff1673ffffffffffffffffffffffffffffffffffffffff16815260200190815260200160002060018261195a9190613a97565b8154811061196b5761196a613acb565b5b9060005260206000200160009054906101000a900473ffffffffffffffffffffffffffffffffffffffff16600260003373ffffffffffffffffffffffffffffffffffffffff1673ffffffffffffffffffffffffffffffffffffffff16815260200190815260200160002082815481106119e7576119e6613acb565b5b9060005260206000200160006101000a81548173ffffffffffffffffffffffffffffffffffffffff021916908373ffffffffffffffffffffffffffffffffffffffff1602179055508080611a3a90613da4565b9150506118b8565b50600260003373ffffffffffffffffffffffffffffffffffffffff1673ffffffffffffffffffffffffffffffffffffffff168152602001908152602001600020805480611a9257611a91613dec565b5b6001900381819060005260206000200160006101000a81549073ffffffffffffffffffffffffffffffffffffffff021916905590555b8080611ad390613da4565b9150506117ba565b5060005b600260008373ffffffffffffffffffffffffffffffffffffffff1673ffffffffffffffffffffffffffffffffffffffff16815260200190815260200160002080549050811015611e00573373ffffffffffffffffffffffffffffffffffffffff16600260008473ffffffffffffffffffffffffffffffffffffffff1673ffffffffffffffffffffffffffffffffffffffff1681526020019081526020016000208281548110611b9157611b90613acb565b5b9060005260206000200160009054906101000a900473ffffffffffffffffffffffffffffffffffffffff1673ffffffffffffffffffffffffffffffffffffffff1603611ded5760008190505b6001600260008573ffffffffffffffffffffffffffffffffffffffff1673ffffffffffffffffffffffffffffffffffffffff16815260200190815260200160002080549050611c2c9190613a63565b811015611d6757600260008473ffffffffffffffffffffffffffffffffffffffff1673ffffffffffffffffffffffffffffffffffffffff168152602001908152602001600020600182611c7f9190613a97565b81548110611c9057611c8f613acb565b5b9060005260206000200160009054906101000a900473ffffffffffffffffffffffffffffffffffffffff16600260008573ffffffffffffffffffffffffffffffffffffffff1673ffffffffffffffffffffffffffffffffffffffff1681526020019081526020016000208281548110611d0c57611d0b613acb565b5b9060005260206000200160006101000a81548173ffffffffffffffffffffffffffffffffffffffff021916908373ffffffffffffffffffffffffffffffffffffffff1602179055508080611d5f90613da4565b915050611bdd565b50600260008373ffffffffffffffffffffffffffffffffffffffff1673ffffffffffffffffffffffffffffffffffffffff168152602001908152602001600020805480611db757611db6613dec565b5b6001900381819060005260206000200160006101000a81549073ffffffffffffffffffffffffffffffffffffffff021916905590555b8080611df890613da4565b915050611adf565b5050565b60038181548110611e1457600080fd5b906000526020600020016000915054906101000a900473ffffffffffffffffffffffffffffffffffffffff1681565b3373ffffffffffffffffffffffffffffffffffffffff166000803373ffffffffffffffffffffffffffffffffffffffff1673ffffffffffffffffffffffffffffffffffffffff16815260200190815260200160002060020160009054906101000a900473ffffffffffffffffffffffffffffffffffffffff1673ffffffffffffffffffffffffffffffffffffffff1603611f12576040517f08c379a0000000000000000000000000000000000000000000000000000000008152600401611f0990614092565b60405180910390fd5b60005b6003805490508110156120415781604051602001611f339190613f29565b6040516020818303038152906040528051906020012060008060038481548110611f6057611f5f613acb565b5b9060005260206000200160009054906101000a900473ffffffffffffffffffffffffffffffffffffffff1673ffffffffffffffffffffffffffffffffffffffff1673ffffffffffffffffffffffffffffffffffffffff168152602001908152602001600020600001604051602001611fd89190613fc3565b604051602081830303815290604052805190602001200361202e576040517f08c379a000000000000000000000000000000000000000000000000000000000815260040161202590614026565b60405180910390fd5b808061203990613da4565b915050611f15565b50604051806080016040528082815260200160016003805490506120659190613a97565b81526020013373ffffffffffffffffffffffffffffffffffffffff168152602001428152506000803373ffffffffffffffffffffffffffffffffffffffff1673ffffffffffffffffffffffffffffffffffffffff16815260200190815260200160002060008201518160000190816120dd9190613e1b565b506020820151816001015560408201518160020160006101000a81548173ffffffffffffffffffffffffffffffffffffffff021916908373ffffffffffffffffffffffffffffffffffffffff160217905550606082015181600301559050506003339080600181540180825580915050600190039060005260206000200160009091909190916101000a81548173ffffffffffffffffffffffffffffffffffffffff021916908373ffffffffffffffffffffffffffffffffffffffff16021790555050565b3373ffffffffffffffffffffffffffffffffffffffff166000803373ffffffffffffffffffffffffffffffffffffffff1673ffffffffffffffffffffffffffffffffffffffff16815260200190815260200160002060020160009054906101000a900473ffffffffffffffffffffffffffffffffffffffff1673ffffffffffffffffffffffffffffffffffffffff1614612271576040517f08c379a0000000000000000000000000000000000000000000000000000000008152600401612268906139a8565b60405180910390fd5b81600160008573ffffffffffffffffffffffffffffffffffffffff1673ffffffffffffffffffffffffffffffffffffffff1681526020019081526020016000208054905010156122f6576040517f08c379a00000000000000000000000000000000000000000000000000000000081526004016122ed90613a14565b60405180910390fd5b80600160008573ffffffffffffffffffffffffffffffffffffffff1673ffffffffffffffffffffffffffffffffffffffff1681526020019081526020016000206001846123439190613a63565b8154811061235457612353613acb565b5b90600052602060002090600502016004018054905010156123aa576040517f08c379a00000000000000000000000000000000000000000000000000000000081526004016123a1906140fe565b60405180910390fd5b3373ffffffffffffffffffffffffffffffffffffffff16600160008573ffffffffffffffffffffffffffffffffffffffff1673ffffffffffffffffffffffffffffffffffffffff16815260200190815260200160002060018461240d9190613a63565b8154811061241e5761241d613acb565b5b906000526020600020906005020160040160018361243c9190613a63565b8154811061244d5761244c613acb565b5b906000526020600020906004020160000160009054906101000a900473ffffffffffffffffffffffffffffffffffffffff1673ffffffffffffffffffffffffffffffffffffffff16146124d5576040517f08c379a00000000000000000000000000000000000000000000000000000000081526004016124cc9061416a565b60405180910390fd5b60006001826124e49190613a63565b90505b60018060008673ffffffffffffffffffffffffffffffffffffffff1673ffffffffffffffffffffffffffffffffffffffff1681526020019081526020016000206001856125349190613a63565b8154811061254557612544613acb565b5b9060005260206000209060050201600401805490506125649190613a63565b8110156127db57600160008573ffffffffffffffffffffffffffffffffffffffff1673ffffffffffffffffffffffffffffffffffffffff1681526020019081526020016000206001846125b79190613a63565b815481106125c8576125c7613acb565b5b90600052602060002090600502016004016001826125e69190613a97565b815481106125f7576125f6613acb565b5b9060005260206000209060040201600160008673ffffffffffffffffffffffffffffffffffffffff1673ffffffffffffffffffffffffffffffffffffffff1681526020019081526020016000206001856126519190613a63565b8154811061266257612661613acb565b5b9060005260206000209060050201600401828154811061268557612684613acb565b5b90600052602060002090600402016000820160009054906101000a900473ffffffffffffffffffffffffffffffffffffffff168160000160006101000a81548173ffffffffffffffffffffffffffffffffffffffff021916908373ffffffffffffffffffffffffffffffffffffffff16021790555060018201548160010155600282018160020190816127189190613cbc565b50600382015481600301559050506001816127339190613a63565b600160008673ffffffffffffffffffffffffffffffffffffffff1673ffffffffffffffffffffffffffffffffffffffff16815260200190815260200160002060018561277f9190613a63565b815481106127905761278f613acb565b5b906000526020600020906005020160040182815481106127b3576127b2613acb565b5b90600052602060002090600402016001018190555080806127d390613da4565b9150506124e7565b50600160008473ffffffffffffffffffffffffffffffffffffffff1673ffffffffffffffffffffffffffffffffffffffff1681526020019081526020016000206001836128289190613a63565b8154811061283957612838613acb565b5b906000526020600020906005020160040180548061285a57612859613dec565b5b6001900381819060005260206000209060040201600080820160006101000a81549073ffffffffffffffffffffffffffffffffffffffff021916905560018201600090556002820160006128ae9190612e5c565b600382016000905550509055505050565b3373ffffffffffffffffffffffffffffffffffffffff166000803373ffffffffffffffffffffffffffffffffffffffff1673ffffffffffffffffffffffffffffffffffffffff16815260200190815260200160002060020160009054906101000a900473ffffffffffffffffffffffffffffffffffffffff1673ffffffffffffffffffffffffffffffffffffffff161461298e576040517f08c379a0000000000000000000000000000000000000000000000000000000008152600401612985906139a8565b60405180910390fd5b8073ffffffffffffffffffffffffffffffffffffffff166000808373ffffffffffffffffffffffffffffffffffffffff1673ffffffffffffffffffffffffffffffffffffffff16815260200190815260200160002060020160009054906101000a900473ffffffffffffffffffffffffffffffffffffffff1673ffffffffffffffffffffffffffffffffffffffff1614612a5d576040517f08c379a0000000000000000000000000000000000000000000000000000000008152600401612a54906139a8565b60405180910390fd5b600260003373ffffffffffffffffffffffffffffffffffffffff1673ffffffffffffffffffffffffffffffffffffffff168152602001908152602001600020819080600181540180825580915050600190039060005260206000200160009091909190916101000a81548173ffffffffffffffffffffffffffffffffffffffff021916908373ffffffffffffffffffffffffffffffffffffffff160217905550600260008273ffffffffffffffffffffffffffffffffffffffff1673ffffffffffffffffffffffffffffffffffffffff168152602001908152602001600020339080600181540180825580915050600190039060005260206000200160009091909190916101000a81548173ffffffffffffffffffffffffffffffffffffffff021916908373ffffffffffffffffffffffffffffffffffffffff16021790555050565b3373ffffffffffffffffffffffffffffffffffffffff166000803373ffffffffffffffffffffffffffffffffffffffff1673ffffffffffffffffffffffffffffffffffffffff16815260200190815260200160002060020160009054906101000a900473ffffffffffffffffffffffffffffffffffffffff1673ffffffffffffffffffffffffffffffffffffffff1614612c6f576040517f08c379a0000000000000000000000000000000000000000000000000000000008152600401612c66906139a8565b60405180910390fd5b81600160003373ffffffffffffffffffffffffffffffffffffffff1673ffffffffffffffffffffffffffffffffffffffff168152602001908152602001600020805490501015612cf4576040517f08c379a0000000000000000000000000000000000000000000000000000000008152600401612ceb90613a14565b60405180910390fd5b80600160003373ffffffffffffffffffffffffffffffffffffffff1673ffffffffffffffffffffffffffffffffffffffff168152602001908152602001600020600184612d419190613a63565b81548110612d5257612d51613acb565b5b90600052602060002090600502016002019081612d6f9190613e1b565b505050565b828054828255906000526020600020906004028101928215612e4b5760005260206000209160040282015b82811115612e4a5782826000820160009054906101000a900473ffffffffffffffffffffffffffffffffffffffff168160000160006101000a81548173ffffffffffffffffffffffffffffffffffffffff021916908373ffffffffffffffffffffffffffffffffffffffff1602179055506001820154816001015560028201816002019081612e2e9190613cbc565b5060038201548160030155505091600401919060040190612d9f565b5b509050612e589190612efe565b5090565b508054612e689061392b565b6000825580601f10612e7a5750612e99565b601f016020900490600052602060002090810190612e989190612f5c565b5b50565b5080546000825560040290600052602060002090810190612ebd9190612efe565b50565b60405180608001604052806060815260200160008152602001600073ffffffffffffffffffffffffffffffffffffffff168152602001600081525090565b5b80821115612f5857600080820160006101000a81549073ffffffffffffffffffffffffffffffffffffffff02191690556001820160009055600282016000612f479190612e5c565b600382016000905550600401612eff565b5090565b5b80821115612f75576000816000905550600101612f5d565b5090565b6000604051905090565b600080fd5b600080fd5b600073ffffffffffffffffffffffffffffffffffffffff82169050919050565b6000612fb882612f8d565b9050919050565b612fc881612fad565b8114612fd357600080fd5b50565b600081359050612fe581612fbf565b92915050565b60006020828403121561300157613000612f83565b5b600061300f84828501612fd6565b91505092915050565b600081519050919050565b600082825260208201905092915050565b60005b83811015613052578082015181840152602081019050613037565b60008484015250505050565b6000601f19601f8301169050919050565b600061307a82613018565b6130848185613023565b9350613094818560208601613034565b61309d8161305e565b840191505092915050565b6000819050919050565b6130bb816130a8565b82525050565b6130ca81612fad565b82525050565b600060808201905081810360008301526130ea818761306f565b90506130f960208301866130b2565b61310660408301856130c1565b61311360608301846130b2565b95945050505050565b613125816130a8565b811461313057600080fd5b50565b6000813590506131428161311c565b92915050565b60006020828403121561315e5761315d612f83565b5b600061316c84828501613133565b91505092915050565b600082825260208201905092915050565b600061319182613018565b61319b8185613175565b93506131ab818560208601613034565b6131b48161305e565b840191505092915050565b6131c8816130a8565b82525050565b6131d781612fad565b82525050565b600060808301600083015184820360008601526131fa8282613186565b915050602083015161320f60208601826131bf565b50604083015161322260408601826131ce565b50606083015161323560608601826131bf565b508091505092915050565b6000602082019050818103600083015261325a81846131dd565b905092915050565b6000806040838503121561327957613278612f83565b5b600061328785828601612fd6565b925050602061329885828601613133565b9150509250929050565b60006080820190506132b760008301876130c1565b6132c460208301866130b2565b81810360408301526132d6818561306f565b90506132e560608301846130b2565b95945050505050565b600081519050919050565b600082825260208201905092915050565b6000819050602082019050919050565b600081519050919050565b600082825260208201905092915050565b6000819050602082019050919050565b600060808301600083015161335e60008601826131ce565b50602083015161337160208601826131bf565b50604083015184820360408601526133898282613186565b915050606083015161339e60608601826131bf565b508091505092915050565b60006133b58383613346565b905092915050565b6000602082019050919050565b60006133d58261331a565b6133df8185613325565b9350836020820285016133f185613336565b8060005b8581101561342d578484038952815161340e85826133a9565b9450613419836133bd565b925060208a019950506001810190506133f5565b50829750879550505050505092915050565b600060a08301600083015161345760008601826131ce565b50602083015161346a60208601826131bf565b50604083015184820360408601526134828282613186565b915050606083015161349760608601826131bf565b50608083015184820360808601526134af82826133ca565b9150508091505092915050565b60006134c8838361343f565b905092915050565b6000602082019050919050565b60006134e8826132ee565b6134f281856132f9565b9350836020820285016135048561330a565b8060005b85811015613540578484038952815161352185826134bc565b945061352c836134d0565b925060208a01995050600181019050613508565b50829750879550505050505092915050565b6000602082019050818103600083015261356c81846134dd565b905092915050565b600081519050919050565b600082825260208201905092915050565b6000819050602082019050919050565b60006135ac83836131ce565b60208301905092915050565b6000602082019050919050565b60006135d082613574565b6135da818561357f565b93506135e583613590565b8060005b838110156136165781516135fd88826135a0565b9750613608836135b8565b9250506001810190506135e9565b5085935050505092915050565b6000602082019050818103600083015261363d81846135c5565b905092915050565b600060208201905061365a60008301846130c1565b92915050565b600080fd5b600080fd5b7f4e487b7100000000000000000000000000000000000000000000000000000000600052604160045260246000fd5b6136a28261305e565b810181811067ffffffffffffffff821117156136c1576136c061366a565b5b80604052505050565b60006136d4612f79565b90506136e08282613699565b919050565b600067ffffffffffffffff821115613700576136ff61366a565b5b6137098261305e565b9050602081019050919050565b82818337600083830152505050565b6000613738613733846136e5565b6136ca565b90508281526020810184848401111561375457613753613665565b5b61375f848285613716565b509392505050565b600082601f83011261377c5761377b613660565b5b813561378c848260208601613725565b91505092915050565b6000602082840312156137ab576137aa612f83565b5b600082013567ffffffffffffffff8111156137c9576137c8612f88565b5b6137d584828501613767565b91505092915050565b6000806000606084860312156137f7576137f6612f83565b5b600061380586828701612fd6565b935050602061381686828701613133565b925050604084013567ffffffffffffffff81111561383757613836612f88565b5b61384386828701613767565b9150509250925092565b60008060006060848603121561386657613865612f83565b5b600061387486828701612fd6565b935050602061388586828701613133565b925050604061389686828701613133565b9150509250925092565b600080604083850312156138b7576138b6612f83565b5b60006138c585828601613133565b925050602083013567ffffffffffffffff8111156138e6576138e5612f88565b5b6138f285828601613767565b9150509250929050565b7f4e487b7100000000000000000000000000000000000000000000000000000000600052602260045260246000fd5b6000600282049050600182168061394357607f821691505b602082108103613956576139556138fc565b5b50919050565b7f4e6f742061206d656d6265720000000000000000000000000000000000000000600082015250565b6000613992600c83613023565b915061399d8261395c565b602082019050919050565b600060208201905081810360008301526139c181613985565b9050919050565b7f506f737420646f65736e27742065786973740000000000000000000000000000600082015250565b60006139fe601283613023565b9150613a09826139c8565b602082019050919050565b60006020820190508181036000830152613a2d816139f1565b9050919050565b7f4e487b7100000000000000000000000000000000000000000000000000000000600052601160045260246000fd5b6000613a6e826130a8565b9150613a79836130a8565b9250828203905081811115613a9157613a90613a34565b5b92915050565b6000613aa2826130a8565b9150613aad836130a8565b9250828201905080821115613ac557613ac4613a34565b5b92915050565b7f4e487b7100000000000000000000000000000000000000000000000000000000600052603260045260246000fd5b600081549050613b098161392b565b9050919050565b60008190508160005260206000209050919050565b60006020601f8301049050919050565b600082821b905092915050565b600060088302613b727fffffffffffffffffffffffffffffffffffffffffffffffffffffffffffffffff82613b35565b613b7c8683613b35565b95508019841693508086168417925050509392505050565b6000819050919050565b6000613bb9613bb4613baf846130a8565b613b94565b6130a8565b9050919050565b6000819050919050565b613bd383613b9e565b613be7613bdf82613bc0565b848454613b42565b825550505050565b600090565b613bfc613bef565b613c07818484613bca565b505050565b5b81811015613c2b57613c20600082613bf4565b600181019050613c0d565b5050565b601f821115613c7057613c4181613b10565b613c4a84613b25565b81016020851015613c59578190505b613c6d613c6585613b25565b830182613c0c565b50505b505050565b600082821c905092915050565b6000613c9360001984600802613c75565b1980831691505092915050565b6000613cac8383613c82565b9150826002028217905092915050565b818103613cca575050613da2565b613cd382613afa565b67ffffffffffffffff811115613cec57613ceb61366a565b5b613cf6825461392b565b613d01828285613c2f565b6000601f831160018114613d305760008415613d1e578287015490505b613d288582613ca0565b865550613d9b565b601f198416613d3e87613b10565b9650613d4986613b10565b60005b82811015613d7157848901548255600182019150600185019450602081019050613d4c565b86831015613d8e5784890154613d8a601f891682613c82565b8355505b6001600288020188555050505b5050505050505b565b6000613daf826130a8565b91507fffffffffffffffffffffffffffffffffffffffffffffffffffffffffffffffff8203613de157613de0613a34565b5b600182019050919050565b7f4e487b7100000000000000000000000000000000000000000000000000000000600052603160045260246000fd5b613e2482613018565b67ffffffffffffffff811115613e3d57613e3c61366a565b5b613e47825461392b565b613e52828285613c2f565b600060209050601f831160018114613e855760008415613e73578287015190505b613e7d8582613ca0565b865550613ee5565b601f198416613e9386613b10565b60005b82811015613ebb57848901518255600182019150602085019450602081019050613e96565b86831015613ed85784890151613ed4601f891682613c82565b8355505b6001600288020188555050505b505050505050565b600081905092915050565b6000613f0382613018565b613f0d8185613eed565b9350613f1d818560208601613034565b80840191505092915050565b6000613f358284613ef8565b915081905092915050565b60008154613f4d8161392b565b613f578186613eed565b94506001821660008114613f725760018114613f8757613fba565b60ff1983168652811515820286019350613fba565b613f9085613b10565b60005b83811015613fb257815481890152600182019150602081019050613f93565b838801955050505b50505092915050565b6000613fcf8284613f40565b915081905092915050565b7f4e69636b6e616d6520616c72656164792074616b656e00000000000000000000600082015250565b6000614010601683613023565b915061401b82613fda565b602082019050919050565b6000602082019050818103600083015261403f81614003565b9050919050565b7f416c72656164792061206d656d62657200000000000000000000000000000000600082015250565b600061407c601083613023565b915061408782614046565b602082019050919050565b600060208201905081810360008301526140ab8161406f565b9050919050565b7f436f6d6d656e7420646f65736e27742065786973740000000000000000000000600082015250565b60006140e8601583613023565b91506140f3826140b2565b602082019050919050565b60006020820190508181036000830152614117816140db565b9050919050565b7f4e6f7420746865206f776e6572206f662074686520636f6d6d656e7400000000600082015250565b6000614154601c83613023565b915061415f8261411e565b602082019050919050565b6000602082019050818103600083015261418381614147565b905091905056fea26469706673582212207239fcd6699d7e0aea7de3071c42b9c2b3017396e6575c9a4aa507b377f013fc64736f6c63430008140033",
  "linkReferences": {},
  "deployedLinkReferences": {}
}